{
  "address": "0x0791B180202E62a187D0293bdf9cD23a460915c2",
  "abi": [
    {
      "inputs": [
        {
          "internalType": "address",
          "name": "_tokenAddress",
          "type": "address"
        }
      ],
      "stateMutability": "nonpayable",
      "type": "constructor"
    },
    {
      "anonymous": false,
      "inputs": [
        {
          "indexed": false,
          "internalType": "address",
          "name": "Buyer",
          "type": "address"
        },
        {
          "indexed": false,
          "internalType": "uint256",
          "name": "VXTTransfered",
          "type": "uint256"
        }
      ],
      "name": "BuyVXTEvent",
      "type": "event"
    },
    {
      "anonymous": false,
      "inputs": [
        {
          "indexed": false,
          "internalType": "address",
          "name": "Recipient",
          "type": "address"
        },
        {
          "indexed": false,
          "internalType": "uint256",
          "name": "DroppedValue",
          "type": "uint256"
        }
      ],
      "name": "TokenDropped",
      "type": "event"
    },
    {
      "anonymous": false,
      "inputs": [
        {
          "indexed": false,
          "internalType": "address",
          "name": "Receiver",
          "type": "address"
        },
        {
          "indexed": false,
          "internalType": "uint256",
          "name": "VXTTransfered",
          "type": "uint256"
        }
      ],
      "name": "TransferedVXTEvent",
      "type": "event"
    },
    {
      "anonymous": false,
      "inputs": [
        {
          "indexed": false,
          "internalType": "address",
          "name": "Voter",
          "type": "address"
        },
        {
          "indexed": false,
          "internalType": "uint256",
          "name": "VotedPower",
          "type": "uint256"
        }
      ],
      "name": "VotedEvent",
      "type": "event"
    },
    {
      "anonymous": false,
      "inputs": [
        {
          "indexed": false,
          "internalType": "address",
          "name": "from",
          "type": "address"
        },
        {
          "indexed": false,
          "internalType": "address",
          "name": "Receiver",
          "type": "address"
        },
        {
          "indexed": false,
          "internalType": "uint256",
          "name": "VXTTransfered",
          "type": "uint256"
        }
      ],
      "name": "withdrawnToken",
      "type": "event"
    },
    {
      "inputs": [
        {
          "internalType": "bool",
          "name": "isStaking",
          "type": "bool"
        },
        {
          "internalType": "address",
          "name": "_Recipient",
          "type": "address"
        },
        {
          "internalType": "uint256",
          "name": "_value",
          "type": "uint256"
        }
      ],
      "name": "Stake",
      "outputs": [],
      "stateMutability": "nonpayable",
      "type": "function"
    },
    {
      "inputs": [
        {
          "internalType": "address",
          "name": "_Sender",
          "type": "address"
        },
        {
          "internalType": "uint256",
          "name": "_value",
          "type": "uint256"
        }
      ],
      "name": "VoteTx",
      "outputs": [],
      "stateMutability": "nonpayable",
      "type": "function"
    },
    {
      "inputs": [
        {
          "internalType": "address",
          "name": "_Recipient",
          "type": "address"
        },
        {
          "internalType": "uint256",
          "name": "_value",
          "type": "uint256"
        }
      ],
      "name": "VotreXTx",
      "outputs": [],
      "stateMutability": "nonpayable",
      "type": "function"
    },
    {
      "inputs": [
        {
          "internalType": "uint256",
          "name": "amount",
          "type": "uint256"
        }
      ],
      "name": "approveAirdrop",
      "outputs": [],
      "stateMutability": "nonpayable",
      "type": "function"
    },
    {
      "inputs": [
        {
          "internalType": "uint256",
          "name": "amount",
          "type": "uint256"
        }
      ],
      "name": "approveDeX",
      "outputs": [],
      "stateMutability": "nonpayable",
      "type": "function"
    },
    {
      "inputs": [
        {
          "internalType": "uint256",
          "name": "amount",
          "type": "uint256"
        }
      ],
      "name": "approveStaking",
      "outputs": [],
      "stateMutability": "nonpayable",
      "type": "function"
    },
    {
      "inputs": [
        {
          "internalType": "uint32",
          "name": "amount",
          "type": "uint32"
        }
      ],
      "name": "approveTxInterface",
      "outputs": [],
      "stateMutability": "nonpayable",
      "type": "function"
    },
    {
      "inputs": [
        {
          "internalType": "uint256",
          "name": "amount",
          "type": "uint256"
        }
      ],
      "name": "approveVotreX",
      "outputs": [],
      "stateMutability": "nonpayable",
      "type": "function"
    },
    {
      "inputs": [
        {
          "internalType": "address",
          "name": "_Recipient",
          "type": "address"
        },
        {
          "internalType": "uint256",
          "name": "_value",
          "type": "uint256"
        }
      ],
      "name": "balanceTx",
      "outputs": [],
      "stateMutability": "nonpayable",
      "type": "function"
    },
    {
      "inputs": [],
      "name": "changeSystemState",
      "outputs": [],
      "stateMutability": "nonpayable",
      "type": "function"
    },
    {
      "inputs": [
        {
          "internalType": "address",
          "name": "_ContractAddress",
          "type": "address"
        }
      ],
      "name": "checkApprovalLimit",
      "outputs": [
        {
          "internalType": "uint256",
          "name": "",
          "type": "uint256"
        }
      ],
      "stateMutability": "view",
      "type": "function"
    },
    {
      "inputs": [
        {
          "internalType": "address",
          "name": "account",
          "type": "address"
        }
      ],
      "name": "checkBalance",
      "outputs": [
        {
          "internalType": "uint256",
          "name": "",
          "type": "uint256"
        }
      ],
      "stateMutability": "view",
      "type": "function"
    },
    {
      "inputs": [],
      "name": "getContracStorages",
      "outputs": [
        {
          "internalType": "address",
          "name": "",
          "type": "address"
        },
        {
          "internalType": "address",
          "name": "",
          "type": "address"
        },
        {
          "internalType": "address",
          "name": "",
          "type": "address"
        },
        {
          "internalType": "address",
          "name": "",
          "type": "address"
        },
        {
          "internalType": "address",
          "name": "",
          "type": "address"
        },
        {
          "internalType": "address",
          "name": "",
          "type": "address"
        }
      ],
      "stateMutability": "view",
      "type": "function"
    },
    {
      "inputs": [],
      "name": "getTokenContract",
      "outputs": [
        {
          "internalType": "address",
          "name": "",
          "type": "address"
        }
      ],
      "stateMutability": "view",
      "type": "function"
    },
    {
      "inputs": [],
      "name": "isActivatedInterfaceCheck",
      "outputs": [
        {
          "internalType": "bool",
          "name": "isActivatedInterface",
          "type": "bool"
        }
      ],
      "stateMutability": "view",
      "type": "function"
    },
    {
      "inputs": [
        {
          "internalType": "address",
          "name": "_recipient",
          "type": "address"
        },
        {
          "internalType": "uint256",
          "name": "_rewardValue",
          "type": "uint256"
        }
      ],
      "name": "printVXT",
      "outputs": [],
      "stateMutability": "nonpayable",
      "type": "function"
    },
    {
      "inputs": [
        {
          "internalType": "address",
          "name": "_AirdropContract",
          "type": "address"
        }
      ],
      "name": "setAirdrop",
      "outputs": [],
      "stateMutability": "nonpayable",
      "type": "function"
    },
    {
      "inputs": [
        {
          "internalType": "address",
          "name": "_dexContract",
          "type": "address"
        }
      ],
      "name": "setDeX",
      "outputs": [],
      "stateMutability": "nonpayable",
      "type": "function"
    },
    {
      "inputs": [
        {
          "internalType": "address",
          "name": "_stakingAddress",
          "type": "address"
        }
      ],
      "name": "setStakingContract",
      "outputs": [],
      "stateMutability": "nonpayable",
      "type": "function"
    },
    {
      "inputs": [
        {
          "internalType": "address",
          "name": "_VotreXContract",
          "type": "address"
        }
      ],
      "name": "setVotreXSys",
      "outputs": [],
      "stateMutability": "nonpayable",
      "type": "function"
    },
    {
      "inputs": [],
      "name": "totalSupplies",
      "outputs": [
        {
          "internalType": "uint256",
          "name": "",
          "type": "uint256"
        }
      ],
      "stateMutability": "view",
      "type": "function"
    }
  ],
  "transactionHash": "0xbf12f593f5482201feb533beb2fb76ed95e095bab5b7e0646cb21746c449a250",
  "args": [
    "0x428fb300624726E24D33A8fE848bdd98Ec54AcC6"
  ],
  "numDeployments": 1,
  "solcInputHash": "f222cec34620c082b345b5cd6cd49f30",
  "bytecode": "0x60e06040526a0c685fa11e01ec6f00000060c0523480156200002057600080fd5b506040516200497f3803806200497f83398101604081905262000043916200008b565b3360a08190526000805460ff191681556001600160a01b039290921660808190529082526004602052604090912060010180546001600160a01b0319169091179055620000bd565b6000602082840312156200009e57600080fd5b81516001600160a01b0381168114620000b657600080fd5b9392505050565b60805160a05160c0516145a5620003da6000396000818161075601528181610a0a01528181610e60015281816111de01528181611b6d01528181611c280152818161205901528181612114015281816124d501528181612bbd0152818161300b0152818161316201528181613495015281816139400152613d650152600081816105a10152818161251d0152818161266d0152818161270a0152818161284f01528181612e09015281816130530152818161378b0152818161382a01528181613a2f01528181613b1f01528181613bcc01528181613c680152613e8501526000818161036201528181610435015281816104c10152818161054d015281816106a0015281816107aa015281816108b20152818161097a01528181610a3401528181610acb01528181610b6401528181610be401528181610c6601528181610ce801528181610dd001528181610e8a01528181610f2101528181610f7101528181610ff1015281816110730152818161114e015281816112080152818161129f015281816112ef0152818161136f015281816113f10152818161147301528181611550015281816115e401528181611634015281816116b4015281816117360152818161188401528181611a4201528181611adc01528181611b9701528181611c5201528181611ce901528181611d3901528181611db901528181611e3b01528181611ebd01528181611f2e01528181611fc8015281816120830152818161213e015281816121d501528181612225015281816122a501528181612327015281816123ef01528181612a7e01528181612b1801528181612be701528181612c7e01528181612cce01528181612d4e01528181612f19015281816130940152818161318c01528181613226015281816132c0015281816133180152818161339801528181613415015281816134bf01528181613559015281816135f301528181613646015281816136c60152818161374b015281816138b00152818161396a015281816139f901528181613a6801528181613ae701528181613b8801528181613ca901528181613db101528181613df5015261406d01526145a56000f3fe608060405234801561001057600080fd5b50600436106101365760003560e01c80637ec9199f116100b8578063abb9d02e1161007c578063abb9d02e146102a9578063b4beb8da146102bc578063b689f637146102cf578063d068cdc5146102e2578063f37693c5146102ea578063fccb3368146102fd57600080fd5b80637ec9199f146102525780639497af9d146102655780639dd373b91461027b578063a2411ee41461028e578063a43064cc146102a157600080fd5b806339b8d5d7116100ff57806339b8d5d7146101bc5780635f515226146101cf5780636d779b04146101e257806372820dbc146101f557806372f124af1461020857600080fd5b8062f07fb61461013b57806328b7bede146101615780632a099a7a1461018157806331228a881461019657806338997322146101a9575b600080fd5b61014e6101493660046140bb565b610310565b6040519081526020015b60405180910390f35b610169610594565b6040516001600160a01b039091168152602001610158565b61019461018f3660046140dd565b610607565b005b6101946101a43660046140f6565b610819565b6101946101b73660046140dd565b6117eb565b6101946101ca366004614131565b611973565b61014e6101dd3660046140bb565b6122e0565b6101946101f03660046140dd565b612356565b6101946102033660046140bb565b612512565b61021061265b565b604080516001600160a01b03978816815295871660208701529386169385019390935290841660608401528316608083015290911660a082015260c001610158565b6101946102603660046140bb565b6126ff565b60005460ff166040519015158152602001610158565b6101946102893660046140bb565b612844565b61019461029c3660046140f6565b61298d565b610194612dfe565b6101946102b73660046140dd565b612e80565b6101946102ca3660046140f6565b613048565b6101946102dd36600461416f565b613c5d565b61014e613df1565b6101946102f83660046140bb565b613e7a565b61019461030b3660046140f6565b613fc1565b336000908152600460208190526040822001546001600160a01b03908116908316036103e257336000908152600460208190526040918290208101549151636eb1769f60e11b81526001600160a01b037f000000000000000000000000000000000000000000000000000000000000000081169363dd62ed3e9361039b939190921691309101614195565b602060405180830381865afa1580156103b8573d6000803e3d6000fd5b505050506040513d601f19601f820116820180604052508101906103dc91906141af565b92915050565b336000908152600460205260409020600301546001600160a01b039081169083160361046e5733600090815260046020819052604091829020600301549151636eb1769f60e11b81526001600160a01b037f000000000000000000000000000000000000000000000000000000000000000081169363dd62ed3e9361039b939190921691309101614195565b336000908152600460205260409020600201546001600160a01b03908116908316036104fa5733600090815260046020819052604091829020600201549151636eb1769f60e11b81526001600160a01b037f000000000000000000000000000000000000000000000000000000000000000081169363dd62ed3e9361039b939190921691309101614195565b336000908152600460205260409020600501546001600160a01b03908116908316036105865733600090815260046020819052604091829020600501549151636eb1769f60e11b81526001600160a01b037f000000000000000000000000000000000000000000000000000000000000000081169363dd62ed3e9361039b939190921691309101614195565b50610194919050565b919050565b6000336001600160a01b037f000000000000000000000000000000000000000000000000000000000000000016146105e75760405162461bcd60e51b81526004016105de906141c8565b60405180910390fd5b50336000908152600460205260409020600101546001600160a01b031690565b6001546001600160a01b031633148061062a57506003546001600160a01b031633145b80610644575060005461010090046001600160a01b031633145b8061065957506002546001600160a01b031633145b6106755760405162461bcd60e51b81526004016105de906141fd565b60005460ff16151560011461069c5760405162461bcd60e51b81526004016105de90614245565b60007f00000000000000000000000000000000000000000000000000000000000000006001600160a01b031663313ce5676040518163ffffffff1660e01b8152600401602060405180830381865afa1580156106fc573d6000803e3d6000fd5b505050506040513d601f19601f820116820180604052508101906107209190614273565b61072b90600a614390565b610735908361439f565b9050306107545760405162461bcd60e51b81526004016105de906143b6565b7f000000000000000000000000000000000000000000000000000000000000000081106107935760405162461bcd60e51b81526004016105de906143ed565b60405163b23c2ed760e01b81526001600160a01b037f0000000000000000000000000000000000000000000000000000000000000000169063b23c2ed7906107e390339030908690600401614424565b600060405180830381600087803b1580156107fd57600080fd5b505af1158015610811573d6000803e3d6000fd5b505050505050565b6001546001600160a01b031633148061083c57506003546001600160a01b031633145b80610856575060005461010090046001600160a01b031633145b8061086b57506002546001600160a01b031633145b6108875760405162461bcd60e51b81526004016105de906141fd565b60005460ff1615156001146108ae5760405162461bcd60e51b81526004016105de90614245565b60007f00000000000000000000000000000000000000000000000000000000000000006001600160a01b031663313ce5676040518163ffffffff1660e01b8152600401602060405180830381865afa15801561090e573d6000803e3d6000fd5b505050506040513d601f19601f820116820180604052508101906109329190614273565b61093d90600a614390565b610947908361439f565b60005490915061010090046001600160a01b03163303610da557604051636eb1769f60e11b815281906001600160a01b037f0000000000000000000000000000000000000000000000000000000000000000169063dd62ed3e906109b19033903090600401614195565b602060405180830381865afa1580156109ce573d6000803e3d6000fd5b505050506040513d601f19601f820116820180604052508101906109f291906141af565b10158015610aaf5750604051636eb1769f60e11b81527f0000000000000000000000000000000000000000000000000000000000000000906001600160a01b037f0000000000000000000000000000000000000000000000000000000000000000169063dd62ed3e90610a6b9033903090600401614195565b602060405180830381865afa158015610a88573d6000803e3d6000fd5b505050506040513d601f19601f82011682018060405250810190610aac91906141af565b10155b15610b4d576040516323b872dd60e01b81526001600160a01b037f000000000000000000000000000000000000000000000000000000000000000016906323b872dd90610b0490869033908690600401614424565b6020604051808303816000875af1158015610b23573d6000803e3d6000fd5b505050506040513d601f19601f82011682018060405250810190610b479190614448565b50505050565b60405163b23c2ed760e01b81526001600160a01b037f0000000000000000000000000000000000000000000000000000000000000000169063b23c2ed790610b9d90339087908690600401614424565b600060405180830381600087803b158015610bb757600080fd5b505af1158015610bcb573d6000803e3d6000fd5b505060405163b23c2ed760e01b81526001600160a01b037f000000000000000000000000000000000000000000000000000000000000000016925063b23c2ed79150610c1f90339030908690600401614424565b600060405180830381600087803b158015610c3957600080fd5b505af1158015610c4d573d6000803e3d6000fd5b505060405163b23c2ed760e01b81526001600160a01b037f000000000000000000000000000000000000000000000000000000000000000016925063b23c2ed79150610ca190869030908690600401614424565b600060405180830381600087803b158015610cbb57600080fd5b505af1158015610ccf573d6000803e3d6000fd5b50506040516323b872dd60e01b81526001600160a01b037f00000000000000000000000000000000000000000000000000000000000000001692506323b872dd9150610d2390339087908690600401614424565b6020604051808303816000875af1158015610d42573d6000803e3d6000fd5b505050506040513d601f19601f82011682018060405250810190610d669190614448565b507f06957233af747b59eed5e509969b9a7a81469c67792deb56cdfddee9f3f6079d3382604051610d98929190614465565b60405180910390a1505050565b6001546001600160a01b0316330361112357604051636eb1769f60e11b815282906001600160a01b037f0000000000000000000000000000000000000000000000000000000000000000169063dd62ed3e90610e079033903090600401614195565b602060405180830381865afa158015610e24573d6000803e3d6000fd5b505050506040513d601f19601f82011682018060405250810190610e4891906141af565b10158015610f055750604051636eb1769f60e11b81527f0000000000000000000000000000000000000000000000000000000000000000906001600160a01b037f0000000000000000000000000000000000000000000000000000000000000000169063dd62ed3e90610ec19033903090600401614195565b602060405180830381865afa158015610ede573d6000803e3d6000fd5b505050506040513d601f19601f82011682018060405250810190610f0291906141af565b10155b15610f5a576040516323b872dd60e01b81526001600160a01b037f000000000000000000000000000000000000000000000000000000000000000016906323b872dd90610b0490339087908790600401614424565b60405163b23c2ed760e01b81526001600160a01b037f0000000000000000000000000000000000000000000000000000000000000000169063b23c2ed790610faa90339087908790600401614424565b600060405180830381600087803b158015610fc457600080fd5b505af1158015610fd8573d6000803e3d6000fd5b505060405163b23c2ed760e01b81526001600160a01b037f000000000000000000000000000000000000000000000000000000000000000016925063b23c2ed7915061102c90339030908790600401614424565b600060405180830381600087803b15801561104657600080fd5b505af115801561105a573d6000803e3d6000fd5b50506040516323b872dd60e01b81526001600160a01b037f00000000000000000000000000000000000000000000000000000000000000001692506323b872dd91506110ae90339087908790600401614424565b6020604051808303816000875af11580156110cd573d6000803e3d6000fd5b505050506040513d601f19601f820116820180604052508101906110f19190614448565b507f22a5ab58f6395a600fde0f9df00fc08b146e72896e9c56644f7f89d6cc03cc6b3383604051610d98929190614465565b6003546001600160a01b0316330361152557604051636eb1769f60e11b815282906001600160a01b037f0000000000000000000000000000000000000000000000000000000000000000169063dd62ed3e906111859033903090600401614195565b602060405180830381865afa1580156111a2573d6000803e3d6000fd5b505050506040513d601f19601f820116820180604052508101906111c691906141af565b101580156112835750604051636eb1769f60e11b81527f0000000000000000000000000000000000000000000000000000000000000000906001600160a01b037f0000000000000000000000000000000000000000000000000000000000000000169063dd62ed3e9061123f9033903090600401614195565b602060405180830381865afa15801561125c573d6000803e3d6000fd5b505050506040513d601f19601f8201168201806040525081019061128091906141af565b10155b156112d8576040516323b872dd60e01b81526001600160a01b037f000000000000000000000000000000000000000000000000000000000000000016906323b872dd90610b0490339087908790600401614424565b60405163b23c2ed760e01b81526001600160a01b037f0000000000000000000000000000000000000000000000000000000000000000169063b23c2ed79061132890339087908790600401614424565b600060405180830381600087803b15801561134257600080fd5b505af1158015611356573d6000803e3d6000fd5b505060405163b23c2ed760e01b81526001600160a01b037f000000000000000000000000000000000000000000000000000000000000000016925063b23c2ed791506113aa90339030908790600401614424565b600060405180830381600087803b1580156113c457600080fd5b505af11580156113d8573d6000803e3d6000fd5b505060405163b23c2ed760e01b81526001600160a01b037f000000000000000000000000000000000000000000000000000000000000000016925063b23c2ed7915061142c90869030908790600401614424565b600060405180830381600087803b15801561144657600080fd5b505af115801561145a573d6000803e3d6000fd5b50506040516323b872dd60e01b81526001600160a01b037f00000000000000000000000000000000000000000000000000000000000000001692506323b872dd91506114ae90339087908790600401614424565b6020604051808303816000875af11580156114cd573d6000803e3d6000fd5b505050506040513d601f19601f820116820180604052508101906114f19190614448565b507f670e827a513d5396bb0296149788bf12de7117212a7ff87427567ef17304d9d6338484604051610d9893929190614424565b6002546001600160a01b031633036117e657604051636eb1769f60e11b815282906001600160a01b037f0000000000000000000000000000000000000000000000000000000000000000169063dd62ed3e906115879033903090600401614195565b602060405180830381865afa1580156115a4573d6000803e3d6000fd5b505050506040513d601f19601f820116820180604052508101906115c891906141af565b1061161d576040516323b872dd60e01b81526001600160a01b037f000000000000000000000000000000000000000000000000000000000000000016906323b872dd90610b0490339087908790600401614424565b60405163b23c2ed760e01b81526001600160a01b037f0000000000000000000000000000000000000000000000000000000000000000169063b23c2ed79061166d90339087908790600401614424565b600060405180830381600087803b15801561168757600080fd5b505af115801561169b573d6000803e3d6000fd5b505060405163b23c2ed760e01b81526001600160a01b037f000000000000000000000000000000000000000000000000000000000000000016925063b23c2ed791506116ef90339030908790600401614424565b600060405180830381600087803b15801561170957600080fd5b505af115801561171d573d6000803e3d6000fd5b50506040516323b872dd60e01b81526001600160a01b037f00000000000000000000000000000000000000000000000000000000000000001692506323b872dd915061177190339087908790600401614424565b6020604051808303816000875af1158015611790573d6000803e3d6000fd5b505050506040513d601f19601f820116820180604052508101906117b49190614448565b507f1799c88637ff4c9e1628a128e950e8861d19b654d8e55679325d60f4ea78c27c8383604051610d98929190614465565b505050565b6001546001600160a01b031633148061180e57506003546001600160a01b031633145b80611828575060005461010090046001600160a01b031633145b8061183d57506002546001600160a01b031633145b6118595760405162461bcd60e51b81526004016105de906141fd565b60005460ff1615156001146118805760405162461bcd60e51b81526004016105de90614245565b60007f00000000000000000000000000000000000000000000000000000000000000006001600160a01b031663313ce5676040518163ffffffff1660e01b8152600401602060405180830381865afa1580156118e0573d6000803e3d6000fd5b505050506040513d601f19601f820116820180604052508101906119049190614273565b61190f90600a614390565b611919908361439f565b9050336107545760405162461bcd60e51b815260206004820152602260248201527f496e74657266616365202d20566f747265582041646472657373206e6f742073604482015261195d60f21b60648201526084016105de565b6001546001600160a01b031633148061199657506003546001600160a01b031633145b806119b0575060005461010090046001600160a01b031633145b806119c557506002546001600160a01b031633145b6119e15760405162461bcd60e51b81526004016105de906141fd565b60005460ff161515600114611a085760405162461bcd60e51b81526004016105de90614245565b6003546001600160a01b031633148015611a2457506001831515145b15611ef857604051636eb1769f60e11b815281906001600160a01b037f0000000000000000000000000000000000000000000000000000000000000000169063dd62ed3e90611a799033903090600401614195565b602060405180830381865afa158015611a96573d6000803e3d6000fd5b505050506040513d601f19601f82011682018060405250810190611aba91906141af565b10158015611b575750604051636eb1769f60e11b815281906001600160a01b037f0000000000000000000000000000000000000000000000000000000000000000169063dd62ed3e90611b139033908790600401614195565b602060405180830381865afa158015611b30573d6000803e3d6000fd5b505050506040513d601f19601f82011682018060405250810190611b5491906141af565b10155b8015611c125750604051636eb1769f60e11b81527f0000000000000000000000000000000000000000000000000000000000000000906001600160a01b037f0000000000000000000000000000000000000000000000000000000000000000169063dd62ed3e90611bce9033903090600401614195565b602060405180830381865afa158015611beb573d6000803e3d6000fd5b505050506040513d601f19601f82011682018060405250810190611c0f91906141af565b10155b8015611ccd5750604051636eb1769f60e11b81527f0000000000000000000000000000000000000000000000000000000000000000906001600160a01b037f0000000000000000000000000000000000000000000000000000000000000000169063dd62ed3e90611c899033908790600401614195565b602060405180830381865afa158015611ca6573d6000803e3d6000fd5b505050506040513d601f19601f82011682018060405250810190611cca91906141af565b10155b15611d22576040516323b872dd60e01b81526001600160a01b037f000000000000000000000000000000000000000000000000000000000000000016906323b872dd90610b0490859033908690600401614424565b60405163b23c2ed760e01b81526001600160a01b037f0000000000000000000000000000000000000000000000000000000000000000169063b23c2ed790611d7290859030908690600401614424565b600060405180830381600087803b158015611d8c57600080fd5b505af1158015611da0573d6000803e3d6000fd5b505060405163b23c2ed760e01b81526001600160a01b037f000000000000000000000000000000000000000000000000000000000000000016925063b23c2ed79150611df490339030908690600401614424565b600060405180830381600087803b158015611e0e57600080fd5b505af1158015611e22573d6000803e3d6000fd5b505060405163b23c2ed760e01b81526001600160a01b037f000000000000000000000000000000000000000000000000000000000000000016925063b23c2ed79150611e7690859033908690600401614424565b600060405180830381600087803b158015611e9057600080fd5b505af1158015611ea4573d6000803e3d6000fd5b50506040516323b872dd60e01b81526001600160a01b037f00000000000000000000000000000000000000000000000000000000000000001692506323b872dd9150610b0490859033908690600401614424565b6003546001600160a01b031633148015611f10575082155b156117e657604051636eb1769f60e11b815281906001600160a01b037f0000000000000000000000000000000000000000000000000000000000000000169063dd62ed3e90611f659033903090600401614195565b602060405180830381865afa158015611f82573d6000803e3d6000fd5b505050506040513d601f19601f82011682018060405250810190611fa691906141af565b101580156120435750604051636eb1769f60e11b815281906001600160a01b037f0000000000000000000000000000000000000000000000000000000000000000169063dd62ed3e90611fff9033908790600401614195565b602060405180830381865afa15801561201c573d6000803e3d6000fd5b505050506040513d601f19601f8201168201806040525081019061204091906141af565b10155b80156120fe5750604051636eb1769f60e11b81527f0000000000000000000000000000000000000000000000000000000000000000906001600160a01b037f0000000000000000000000000000000000000000000000000000000000000000169063dd62ed3e906120ba9033903090600401614195565b602060405180830381865afa1580156120d7573d6000803e3d6000fd5b505050506040513d601f19601f820116820180604052508101906120fb91906141af565b10155b80156121b95750604051636eb1769f60e11b81527f0000000000000000000000000000000000000000000000000000000000000000906001600160a01b037f0000000000000000000000000000000000000000000000000000000000000000169063dd62ed3e906121759033908790600401614195565b602060405180830381865afa158015612192573d6000803e3d6000fd5b505050506040513d601f19601f820116820180604052508101906121b691906141af565b10155b1561220e576040516323b872dd60e01b81526001600160a01b037f000000000000000000000000000000000000000000000000000000000000000016906323b872dd90610b0490339086908690600401614424565b60405163b23c2ed760e01b81526001600160a01b037f0000000000000000000000000000000000000000000000000000000000000000169063b23c2ed79061225e90339086908690600401614424565b600060405180830381600087803b15801561227857600080fd5b505af115801561228c573d6000803e3d6000fd5b50506040516323b872dd60e01b81526001600160a01b037f00000000000000000000000000000000000000000000000000000000000000001692506323b872dd9150610b0490339086908690600401614424565b6000805460ff1615156001146123085760405162461bcd60e51b81526004016105de90614245565b6040516370a0823160e01b81526001600160a01b0383811660048301527f000000000000000000000000000000000000000000000000000000000000000016906370a082319060240161039b565b6001546001600160a01b031633148061237957506003546001600160a01b031633145b80612393575060005461010090046001600160a01b031633145b806123a857506002546001600160a01b031633145b6123c45760405162461bcd60e51b81526004016105de906141fd565b60005460ff1615156001146123eb5760405162461bcd60e51b81526004016105de90614245565b60007f00000000000000000000000000000000000000000000000000000000000000006001600160a01b031663313ce5676040518163ffffffff1660e01b8152600401602060405180830381865afa15801561244b573d6000803e3d6000fd5b505050506040513d601f19601f8201168201806040525081019061246f9190614273565b61247a90600a614390565b612484908361439f565b9050336124d35760405162461bcd60e51b815260206004820152601f60248201527f496e74657266616365202d204465582041646472657373206e6f74207365740060448201526064016105de565b7f000000000000000000000000000000000000000000000000000000000000000081106107935760405162461bcd60e51b81526004016105de9061447e565b336001600160a01b037f0000000000000000000000000000000000000000000000000000000000000000161461255a5760405162461bcd60e51b81526004016105de906141c8565b60005460ff161561257d5760405162461bcd60e51b81526004016105de906144c9565b336000908152600460205260409020600501546001600160a01b03908116908216036125f95760405162461bcd60e51b815260206004820152602560248201527f496e74657266616365202d205265676973746572656420566f7472655820416960448201526407264726f760dc1b60648201526084016105de565b6001600160a01b03811661261f5760405162461bcd60e51b81526004016105de906144f9565b600280546001600160a01b039092166001600160a01b031992831681179091553360009081526004602052604090206005018054909216179055565b60008080808080336001600160a01b037f000000000000000000000000000000000000000000000000000000000000000016146126aa5760405162461bcd60e51b81526004016105de906141c8565b50503360009081526004602081905260409091208054600182015460028301546003840154948401546005909401546001600160a01b039384169a928416995090831697509382169550918116935090911690565b336001600160a01b037f000000000000000000000000000000000000000000000000000000000000000016146127475760405162461bcd60e51b81526004016105de906141c8565b60005460ff161561276a5760405162461bcd60e51b81526004016105de906144c9565b336000908152600460205260409020600301546001600160a01b03908116908216036127e25760405162461bcd60e51b815260206004820152602160248201527f496e74657266616365202d205265676973746572656420566f747265582044656044820152600b60fb1b60648201526084016105de565b6001600160a01b0381166128085760405162461bcd60e51b81526004016105de906144f9565b600180546001600160a01b039092166001600160a01b031992831681179091553360009081526004602052604090206003018054909216179055565b336001600160a01b037f0000000000000000000000000000000000000000000000000000000000000000161461288c5760405162461bcd60e51b81526004016105de906141c8565b60005460ff16156128af5760405162461bcd60e51b81526004016105de906144c9565b336000908152600460205260409020600201546001600160a01b039081169082160361292b5760405162461bcd60e51b815260206004820152602560248201527f496e74657266616365202d205265676973746572656420566f74726558205374604482015264616b696e6760d81b60648201526084016105de565b6001600160a01b0381166129515760405162461bcd60e51b81526004016105de9061452b565b600380546001600160a01b039092166001600160a01b031992831681179091553360009081526004602052604090206002018054909216179055565b6001546001600160a01b03163314806129b057506003546001600160a01b031633145b806129ca575060005461010090046001600160a01b031633145b806129df57506002546001600160a01b031633145b6129fb5760405162461bcd60e51b81526004016105de906141fd565b60005460ff161515600114612a225760405162461bcd60e51b81526004016105de90614245565b60005461010090046001600160a01b03163314612a7a5760405162461bcd60e51b8152602060048201526016602482015275092dce8cae4ccc2c6ca405a409cdee840acdee8e4cab60531b60448201526064016105de565b60007f00000000000000000000000000000000000000000000000000000000000000006001600160a01b031663313ce5676040518163ffffffff1660e01b8152600401602060405180830381865afa158015612ada573d6000803e3d6000fd5b505050506040513d601f19601f82011682018060405250810190612afe9190614273565b612b0990600a614390565b612b13908361439f565b9050807f00000000000000000000000000000000000000000000000000000000000000006001600160a01b031663dd62ed3e33306040518363ffffffff1660e01b8152600401612b64929190614195565b602060405180830381865afa158015612b81573d6000803e3d6000fd5b505050506040513d601f19601f82011682018060405250810190612ba591906141af565b10158015612c625750604051636eb1769f60e11b81527f0000000000000000000000000000000000000000000000000000000000000000906001600160a01b037f0000000000000000000000000000000000000000000000000000000000000000169063dd62ed3e90612c1e9033903090600401614195565b602060405180830381865afa158015612c3b573d6000803e3d6000fd5b505050506040513d601f19601f82011682018060405250810190612c5f91906141af565b10155b15612cb7576040516323b872dd60e01b81526001600160a01b037f000000000000000000000000000000000000000000000000000000000000000016906323b872dd90610b0490869033908690600401614424565b60405163b23c2ed760e01b81526001600160a01b037f0000000000000000000000000000000000000000000000000000000000000000169063b23c2ed790612d0790869030908690600401614424565b600060405180830381600087803b158015612d2157600080fd5b505af1158015612d35573d6000803e3d6000fd5b50506040516323b872dd60e01b81526001600160a01b037f00000000000000000000000000000000000000000000000000000000000000001692506323b872dd9150612d8990869033908690600401614424565b6020604051808303816000875af1158015612da8573d6000803e3d6000fd5b505050506040513d601f19601f82011682018060405250810190612dcc9190614448565b507f0902475a854b82199b4f5d6b81327ec4c4ec077ce0356a106ddc2748c5285ed33382604051610d98929190614465565b336001600160a01b037f00000000000000000000000000000000000000000000000000000000000000001614612e465760405162461bcd60e51b81526004016105de906141c8565b6000805460ff1615159003612e64576000805460ff19166001179055565b60005460ff161515600103612e7e576000805460ff191690555b565b6001546001600160a01b0316331480612ea357506003546001600160a01b031633145b80612ebd575060005461010090046001600160a01b031633145b80612ed257506002546001600160a01b031633145b612eee5760405162461bcd60e51b81526004016105de906141fd565b60005460ff161515600114612f155760405162461bcd60e51b81526004016105de90614245565b60007f00000000000000000000000000000000000000000000000000000000000000006001600160a01b031663313ce5676040518163ffffffff1660e01b8152600401602060405180830381865afa158015612f75573d6000803e3d6000fd5b505050506040513d601f19601f82011682018060405250810190612f999190614273565b612fa490600a614390565b612fae908361439f565b9050336130095760405162461bcd60e51b815260206004820152602360248201527f496e74657266616365202d205374616b696e672041646472657373206e6f74206044820152621cd95d60ea1b60648201526084016105de565b7f000000000000000000000000000000000000000000000000000000000000000082106107935760405162461bcd60e51b81526004016105de9061447e565b336001600160a01b037f000000000000000000000000000000000000000000000000000000000000000016146130905760405162461bcd60e51b81526004016105de906141c8565b60007f00000000000000000000000000000000000000000000000000000000000000006001600160a01b031663313ce5676040518163ffffffff1660e01b8152600401602060405180830381865afa1580156130f0573d6000803e3d6000fd5b505050506040513d601f19601f820116820180604052508101906131149190614273565b61311f90600a614390565b613129908361439f565b33600090815260046020819052604090912001549091506001600160a01b039081169084160361346057604051636eb1769f60e11b81527f0000000000000000000000000000000000000000000000000000000000000000906001600160a01b037f0000000000000000000000000000000000000000000000000000000000000000169063dd62ed3e906131c39033903090600401614195565b602060405180830381865afa1580156131e0573d6000803e3d6000fd5b505050506040513d601f19601f8201168201806040525081019061320491906141af565b101580156132a15750604051636eb1769f60e11b815281906001600160a01b037f0000000000000000000000000000000000000000000000000000000000000000169063dd62ed3e9061325d9033903090600401614195565b602060405180830381865afa15801561327a573d6000803e3d6000fd5b505050506040513d601f19601f8201168201806040525081019061329e91906141af565b10155b15613301576000546040516323b872dd60e01b81526001600160a01b037f0000000000000000000000000000000000000000000000000000000000000000818116936323b872dd93610b0493610100909204909116908690600401614424565b60405163b23c2ed760e01b81526001600160a01b037f0000000000000000000000000000000000000000000000000000000000000000169063b23c2ed79061335190339087908690600401614424565b600060405180830381600087803b15801561336b57600080fd5b505af115801561337f573d6000803e3d6000fd5b505060405163b23c2ed760e01b81526001600160a01b037f000000000000000000000000000000000000000000000000000000000000000016925063b23c2ed791506133d390339030908690600401614424565b600060405180830381600087803b1580156133ed57600080fd5b505af1158015613401573d6000803e3d6000fd5b50506000546040516323b872dd60e01b81527f00000000000000000000000000000000000000000000000000000000000000006001600160a01b0381811695506323b872dd9450610b0493919261010090920416908690600401614424565b336000908152600460205260409020600301546001600160a01b039081169084160361378957604051636eb1769f60e11b81527f0000000000000000000000000000000000000000000000000000000000000000906001600160a01b037f0000000000000000000000000000000000000000000000000000000000000000169063dd62ed3e906134f69033903090600401614195565b602060405180830381865afa158015613513573d6000803e3d6000fd5b505050506040513d601f19601f8201168201806040525081019061353791906141af565b101580156135d45750604051636eb1769f60e11b815281906001600160a01b037f0000000000000000000000000000000000000000000000000000000000000000169063dd62ed3e906135909033903090600401614195565b602060405180830381865afa1580156135ad573d6000803e3d6000fd5b505050506040513d601f19601f820116820180604052508101906135d191906141af565b10155b1561362f576001546040516323b872dd60e01b81526001600160a01b037f0000000000000000000000000000000000000000000000000000000000000000818116936323b872dd93610b049391909116908690600401614424565b60405163b23c2ed760e01b81526001600160a01b037f0000000000000000000000000000000000000000000000000000000000000000169063b23c2ed79061367f90339087908690600401614424565b600060405180830381600087803b15801561369957600080fd5b505af11580156136ad573d6000803e3d6000fd5b505060405163b23c2ed760e01b81526001600160a01b037f000000000000000000000000000000000000000000000000000000000000000016925063b23c2ed7915061370190339030908690600401614424565b600060405180830381600087803b15801561371b57600080fd5b505af115801561372f573d6000803e3d6000fd5b50506001546040516323b872dd60e01b81526001600160a01b037f000000000000000000000000000000000000000000000000000000000000000081811695506323b872dd9450610b049390929116908690600401614424565b7f00000000000000000000000000000000000000000000000000000000000000006001600160a01b0316836001600160a01b031603613bca57623d0900821061381f5760405162461bcd60e51b815260206004820152602260248201527f496e74657266616365202d205472616e73666572206c696d6974205265616368604482015261195960f21b60648201526084016105de565b336001600160a01b037f000000000000000000000000000000000000000000000000000000000000000016146138975760405162461bcd60e51b815260206004820152601a60248201527f496e74657266616365202d204e6f7420417574686f72697a656400000000000060448201526064016105de565b604051636eb1769f60e11b815281906001600160a01b037f0000000000000000000000000000000000000000000000000000000000000000169063dd62ed3e906138e79033903090600401614195565b602060405180830381865afa158015613904573d6000803e3d6000fd5b505050506040513d601f19601f8201168201806040525081019061392891906141af565b101580156139e55750604051636eb1769f60e11b81527f0000000000000000000000000000000000000000000000000000000000000000906001600160a01b037f0000000000000000000000000000000000000000000000000000000000000000169063dd62ed3e906139a19033903090600401614195565b602060405180830381865afa1580156139be573d6000803e3d6000fd5b505050506040513d601f19601f820116820180604052508101906139e291906141af565b10155b15613a59576040516323b872dd60e01b81527f00000000000000000000000000000000000000000000000000000000000000006001600160a01b038116916323b872dd91610b04917f0000000000000000000000000000000000000000000000000000000000000000908690600401614424565b60405163b23c2ed760e01b81527f00000000000000000000000000000000000000000000000000000000000000006001600160a01b0381169163b23c2ed791613aa89130908690600401614424565b600060405180830381600087803b158015613ac257600080fd5b505af1158015613ad6573d6000803e3d6000fd5b505060405163b23c2ed760e01b81527f00000000000000000000000000000000000000000000000000000000000000006001600160a01b038116935063b23c2ed79250613b49917f0000000000000000000000000000000000000000000000000000000000000000908690600401614424565b600060405180830381600087803b158015613b6357600080fd5b505af1158015613b77573d6000803e3d6000fd5b50506040516323b872dd60e01b81527f00000000000000000000000000000000000000000000000000000000000000006001600160a01b03811693506323b872dd9250610d239133908690600401614424565b7f00000000000000000000000000000000000000000000000000000000000000006001600160a01b0316836001600160a01b0316141580613c295750336000908152600460205260409020600301546001600160a01b03848116911614155b80613c53575033600090815260046020819052604090912001546001600160a01b03848116911614155b156117e657600080fd5b336001600160a01b037f00000000000000000000000000000000000000000000000000000000000000001614613ca55760405162461bcd60e51b81526004016105de906141c8565b60007f00000000000000000000000000000000000000000000000000000000000000006001600160a01b031663313ce5676040518163ffffffff1660e01b8152600401602060405180830381865afa158015613d05573d6000803e3d6000fd5b505050506040513d601f19601f82011682018060405250810190613d299190614273565b613d3490600a614390565b613d449063ffffffff841661439f565b905030613d635760405162461bcd60e51b81526004016105de906143b6565b7f00000000000000000000000000000000000000000000000000000000000000008110613da25760405162461bcd60e51b81526004016105de906143ed565b60405163b23c2ed760e01b81527f00000000000000000000000000000000000000000000000000000000000000006001600160a01b0381169163b23c2ed7916107e39130908690600401614424565b60007f00000000000000000000000000000000000000000000000000000000000000006001600160a01b03166318160ddd6040518163ffffffff1660e01b8152600401602060405180830381865afa158015613e51573d6000803e3d6000fd5b505050506040513d601f19601f82011682018060405250810190613e7591906141af565b905090565b336001600160a01b037f00000000000000000000000000000000000000000000000000000000000000001614613ec25760405162461bcd60e51b81526004016105de906141c8565b60005460ff1615613ee55760405162461bcd60e51b81526004016105de906144c9565b33600090815260046020819052604090912001546001600160a01b0390811690821603613f545760405162461bcd60e51b815260206004820152601d60248201527f496e74657266616365202d205265676973746572656420566f7472655800000060448201526064016105de565b6001600160a01b038116613f7a5760405162461bcd60e51b81526004016105de9061452b565b60008054610100600160a81b0319166101006001600160a01b03939093169283021781553381526004602081905260409091200180546001600160a01b0319169091179055565b6001546001600160a01b0316331480613fe457506003546001600160a01b031633145b80613ffe575060005461010090046001600160a01b031633145b8061401357506002546001600160a01b031633145b61402f5760405162461bcd60e51b81526004016105de906141fd565b60005460ff1615156001146140565760405162461bcd60e51b81526004016105de90614245565b6040516340c10f1960e01b81526001600160a01b037f000000000000000000000000000000000000000000000000000000000000000016906340c10f19906107e39085908590600401614465565b80356001600160a01b038116811461058f57600080fd5b6000602082840312156140cd57600080fd5b6140d6826140a4565b9392505050565b6000602082840312156140ef57600080fd5b5035919050565b6000806040838503121561410957600080fd5b614112836140a4565b946020939093013593505050565b801515811461412e57600080fd5b50565b60008060006060848603121561414657600080fd5b833561415181614120565b925061415f602085016140a4565b9150604084013590509250925092565b60006020828403121561418157600080fd5b813563ffffffff811681146140d657600080fd5b6001600160a01b0392831681529116602082015260400190565b6000602082840312156141c157600080fd5b5051919050565b6020808252818101527f496e74657266616365202d2043616c6c6572206973206e6f74204f776e657221604082015260600190565b60208082526028908201527f496e74657266616365202d2043616c6c6572206973206e6f7420616e20417574604082015267686f72697a65642160c01b606082015260800190565b602080825260149082015273496e74657266616365206e6f742041637469766560601b604082015260600190565b60006020828403121561428557600080fd5b815160ff811681146140d657600080fd5b634e487b7160e01b600052601160045260246000fd5b600181815b808511156142e75781600019048211156142cd576142cd614296565b808516156142da57918102915b93841c93908002906142b1565b509250929050565b6000826142fe575060016103dc565b8161430b575060006103dc565b8160018114614321576002811461432b57614347565b60019150506103dc565b60ff84111561433c5761433c614296565b50506001821b6103dc565b5060208310610133831016604e8410600b841016171561436a575081810a6103dc565b61437483836142ac565b806000190482111561438857614388614296565b029392505050565b60006140d660ff8416836142ef565b80820281158282048414176103dc576103dc614296565b6020808252601b908201527f496e74657266616365202d20496e76616c696420616464726573730000000000604082015260600190565b6020808252601f908201527f43616e206e6f7420617070726f7665206d6f7265207468616e206c696d697400604082015260600190565b6001600160a01b039384168152919092166020820152604081019190915260600190565b60006020828403121561445a57600080fd5b81516140d681614120565b6001600160a01b03929092168252602082015260400190565b6020808252602b908201527f496e74657266616365202d2043616e206e6f7420617070726f7665206d6f726560408201526a081d1a185b881b1a5b5a5d60aa1b606082015260800190565b602080825260169082015275496e74657266616365207374696c6c2041637469766560501b604082015260600190565b602080825260189082015277496e76616c696420636f6e7472616374206164647265737360401b604082015260600190565b60208082526024908201527f496e74657266616365202d20496e76616c696420636f6e7472616374206164646040820152637265737360e01b60608201526080019056fea2646970667358221220d0613b72b8281d68cd10ea8339cea340f72cbf0a819d300c10fa763e81dd670264736f6c63430008160033",
  "devdoc": {
    "kind": "dev",
    "methods": {},
    "version": 1
  },
  "userdoc": {
    "kind": "user",
    "methods": {},
    "version": 1
  },
  "storageLayout": {
    "storage": [
      {
        "astId": 7073,
        "contract": "contracts/VotreXTxInterface.sol:VotreXTXInterface",
        "label": "interfaceActivated",
        "offset": 0,
        "slot": "0",
        "type": "t_bool"
      },
      {
        "astId": 7075,
        "contract": "contracts/VotreXTxInterface.sol:VotreXTXInterface",
        "label": "VotreXContract",
        "offset": 1,
        "slot": "0",
        "type": "t_address"
      },
      {
        "astId": 7077,
        "contract": "contracts/VotreXTxInterface.sol:VotreXTXInterface",
        "label": "dexContract",
        "offset": 0,
        "slot": "1",
        "type": "t_address"
      },
      {
        "astId": 7079,
        "contract": "contracts/VotreXTxInterface.sol:VotreXTXInterface",
        "label": "airdropContract",
        "offset": 0,
        "slot": "2",
        "type": "t_address"
      },
      {
        "astId": 7081,
        "contract": "contracts/VotreXTxInterface.sol:VotreXTXInterface",
        "label": "stakingContract",
        "offset": 0,
        "slot": "3",
        "type": "t_address"
      },
      {
        "astId": 7095,
        "contract": "contracts/VotreXTxInterface.sol:VotreXTXInterface",
        "label": "ContractStorage",
        "offset": 0,
        "slot": "4",
        "type": "t_mapping(t_address,t_struct(IContract)7108_storage)"
      }
    ],
    "types": {
      "t_address": {
        "encoding": "inplace",
        "label": "address",
        "numberOfBytes": "20"
      },
      "t_bool": {
        "encoding": "inplace",
        "label": "bool",
        "numberOfBytes": "1"
      },
      "t_mapping(t_address,t_struct(IContract)7108_storage)": {
        "encoding": "mapping",
        "key": "t_address",
        "label": "mapping(address => struct VotreXTXInterface.IContract)",
        "numberOfBytes": "32",
        "value": "t_struct(IContract)7108_storage"
      },
      "t_struct(IContract)7108_storage": {
        "encoding": "inplace",
        "label": "struct VotreXTXInterface.IContract",
        "members": [
          {
            "astId": 7097,
            "contract": "contracts/VotreXTxInterface.sol:VotreXTXInterface",
            "label": "Authorized",
            "offset": 0,
            "slot": "0",
            "type": "t_address"
          },
          {
            "astId": 7099,
            "contract": "contracts/VotreXTxInterface.sol:VotreXTXInterface",
            "label": "tokenContract",
            "offset": 0,
            "slot": "1",
            "type": "t_address"
          },
          {
            "astId": 7101,
            "contract": "contracts/VotreXTxInterface.sol:VotreXTXInterface",
            "label": "stakingContract",
            "offset": 0,
            "slot": "2",
            "type": "t_address"
          },
          {
            "astId": 7103,
            "contract": "contracts/VotreXTxInterface.sol:VotreXTXInterface",
            "label": "dexContract",
            "offset": 0,
            "slot": "3",
            "type": "t_address"
          },
          {
            "astId": 7105,
            "contract": "contracts/VotreXTxInterface.sol:VotreXTXInterface",
            "label": "VotreXContract",
            "offset": 0,
            "slot": "4",
            "type": "t_address"
          },
          {
            "astId": 7107,
            "contract": "contracts/VotreXTxInterface.sol:VotreXTXInterface",
            "label": "airdropContract",
            "offset": 0,
            "slot": "5",
            "type": "t_address"
          }
        ],
        "numberOfBytes": "192"
      }
    }
  }
}