{
  "address": "0xcE4639A1c30738C113A7D439db9EBf72109f20Aa",
  "abi": [
    {
      "inputs": [
        {
          "internalType": "address",
          "name": "_intefaceAddress",
          "type": "address"
        }
      ],
      "stateMutability": "nonpayable",
      "type": "constructor"
    },
    {
      "anonymous": false,
      "inputs": [
        {
          "indexed": true,
          "internalType": "address",
          "name": "staker",
          "type": "address"
        },
        {
          "indexed": false,
          "internalType": "uint256",
          "name": "stakeValue",
          "type": "uint256"
        },
        {
          "indexed": false,
          "internalType": "uint256",
          "name": "rewardPercentage",
          "type": "uint256"
        },
        {
          "indexed": false,
          "internalType": "uint256",
          "name": "rewardValue",
          "type": "uint256"
        },
        {
          "indexed": false,
          "internalType": "uint256",
          "name": "StartTime",
          "type": "uint256"
        },
        {
          "indexed": false,
          "internalType": "uint256",
          "name": "NextRewardTime",
          "type": "uint256"
        }
      ],
      "name": "Staked",
      "type": "event"
    },
    {
      "anonymous": false,
      "inputs": [
        {
          "indexed": true,
          "internalType": "address",
          "name": "Destination",
          "type": "address"
        },
        {
          "indexed": false,
          "internalType": "uint256",
          "name": "printedValue",
          "type": "uint256"
        }
      ],
      "name": "TokenPrinted",
      "type": "event"
    },
    {
      "anonymous": false,
      "inputs": [
        {
          "indexed": true,
          "internalType": "address",
          "name": "staker",
          "type": "address"
        },
        {
          "indexed": false,
          "internalType": "uint256",
          "name": "stakeValueTaken",
          "type": "uint256"
        }
      ],
      "name": "Unstaked",
      "type": "event"
    },
    {
      "inputs": [],
      "name": "CheckTokenBalance",
      "outputs": [
        {
          "internalType": "uint256",
          "name": "",
          "type": "uint256"
        }
      ],
      "stateMutability": "view",
      "type": "function"
    },
    {
      "inputs": [
        {
          "internalType": "address",
          "name": "",
          "type": "address"
        }
      ],
      "name": "allowances",
      "outputs": [
        {
          "internalType": "uint256",
          "name": "",
          "type": "uint256"
        }
      ],
      "stateMutability": "view",
      "type": "function"
    },
    {
      "inputs": [
        {
          "internalType": "uint256",
          "name": "amount",
          "type": "uint256"
        }
      ],
      "name": "approveStaking",
      "outputs": [],
      "stateMutability": "nonpayable",
      "type": "function"
    },
    {
      "inputs": [
        {
          "internalType": "address",
          "name": "_AutomationAddress",
          "type": "address"
        }
      ],
      "name": "authorizeAutomation",
      "outputs": [],
      "stateMutability": "nonpayable",
      "type": "function"
    },
    {
      "inputs": [],
      "name": "checkTotalInitialRewards",
      "outputs": [
        {
          "internalType": "uint256",
          "name": "",
          "type": "uint256"
        }
      ],
      "stateMutability": "view",
      "type": "function"
    },
    {
      "inputs": [],
      "name": "checkTotalPrintToken",
      "outputs": [
        {
          "internalType": "uint256",
          "name": "",
          "type": "uint256"
        }
      ],
      "stateMutability": "view",
      "type": "function"
    },
    {
      "inputs": [],
      "name": "checkTotalStakes",
      "outputs": [
        {
          "internalType": "uint256",
          "name": "",
          "type": "uint256"
        }
      ],
      "stateMutability": "view",
      "type": "function"
    },
    {
      "inputs": [],
      "name": "checksharedRewards",
      "outputs": [
        {
          "internalType": "uint256",
          "name": "",
          "type": "uint256"
        }
      ],
      "stateMutability": "view",
      "type": "function"
    },
    {
      "inputs": [],
      "name": "distributeRewards",
      "outputs": [],
      "stateMutability": "nonpayable",
      "type": "function"
    },
    {
      "inputs": [],
      "name": "getStakerRewardTimes",
      "outputs": [
        {
          "internalType": "address[]",
          "name": "stakerAddressList",
          "type": "address[]"
        },
        {
          "internalType": "uint256[]",
          "name": "rewardTimeList",
          "type": "uint256[]"
        }
      ],
      "stateMutability": "view",
      "type": "function"
    },
    {
      "inputs": [
        {
          "internalType": "address",
          "name": "_interfaceAddress",
          "type": "address"
        }
      ],
      "name": "setNewInterfaceAddress",
      "outputs": [],
      "stateMutability": "nonpayable",
      "type": "function"
    },
    {
      "inputs": [
        {
          "internalType": "uint256",
          "name": "stakeVXTValue",
          "type": "uint256"
        }
      ],
      "name": "stake",
      "outputs": [],
      "stateMutability": "nonpayable",
      "type": "function"
    },
    {
      "inputs": [
        {
          "internalType": "address",
          "name": "",
          "type": "address"
        }
      ],
      "name": "stakerInfo",
      "outputs": [
        {
          "internalType": "address",
          "name": "StakerAddress",
          "type": "address"
        },
        {
          "internalType": "uint256",
          "name": "StakingValue",
          "type": "uint256"
        },
        {
          "internalType": "uint256",
          "name": "initialReward",
          "type": "uint256"
        },
        {
          "internalType": "uint256",
          "name": "accumulativeReward",
          "type": "uint256"
        },
        {
          "internalType": "uint256",
          "name": "totalPrintedToken",
          "type": "uint256"
        },
        {
          "internalType": "uint256",
          "name": "PrintValue",
          "type": "uint256"
        },
        {
          "internalType": "uint256",
          "name": "startStakingTime",
          "type": "uint256"
        },
        {
          "internalType": "uint256",
          "name": "rewardTime",
          "type": "uint256"
        }
      ],
      "stateMutability": "view",
      "type": "function"
    },
    {
      "inputs": [],
      "name": "unstake",
      "outputs": [],
      "stateMutability": "nonpayable",
      "type": "function"
    },
    {
      "inputs": [
        {
          "internalType": "address",
          "name": "_destination",
          "type": "address"
        }
      ],
      "name": "withdrawPrintedTokento",
      "outputs": [],
      "stateMutability": "nonpayable",
      "type": "function"
    },
    {
      "inputs": [],
      "name": "withdrawTokentoOwner",
      "outputs": [],
      "stateMutability": "nonpayable",
      "type": "function"
    }
  ],
  "transactionHash": "0x02ad7d90149e86287ebcad6b0d686b1ca578ddb98ce96c08d93f70a5add1c44a",
  "args": [
    "0x0791B180202E62a187D0293bdf9cD23a460915c2"
  ],
  "numDeployments": 1,
  "solcInputHash": "f222cec34620c082b345b5cd6cd49f30",
  "bytecode": "0x60a060405234801561001057600080fd5b50604051611ad4380380611ad483398101604081905261002f91610058565b600080546001600160a01b0319166001600160a01b039290921691909117905533608052610088565b60006020828403121561006a57600080fd5b81516001600160a01b038116811461008157600080fd5b9392505050565b608051611a006100d46000396000818161027a015281816103950152818161092e0152818161099801528181610bf8015281816111510152818161125d01526115830152611a006000f3fe608060405234801561001057600080fd5b50600436106100e05760003560e01c80636f4a2cd0116100875780636f4a2cd01461020e5780638b9b75ad14610216578063a694fc3a14610229578063abb9d02e1461023c578063bf6d31e31461024f578063cc582d9b14610257578063d85990e91461025f578063e0fd8be11461026757600080fd5b806315b6d104146100e55780631a80c09a146100fa578063230d55d6146101155780632b603c711461012b5780632def66201461014b5780632ff8bf64146101535780634e745f1f146101665780636650fc6c14610206575b600080fd5b6100f86100f3366004611723565b61026f565b005b610102610388565b6040519081526020015b60405180910390f35b61011d610445565b60405161010c92919061174c565b610102610139366004611723565b60096020526000908152604090205481565b6100f861059f565b6100f8610161366004611723565b610923565b6101c1610174366004611723565b600860205260009081526040902080546001820154600283015460038401546004850154600586015460068701546007909701546001600160a01b03909616969495939492939192909188565b604080516001600160a01b0390991689526020890197909752958701949094526060860192909252608085015260a084015260c083015260e08201526101000161010c565b600354610102565b6100f861098d565b6100f8610224366004611723565b610bed565b6100f86102373660046117d0565b610d68565b6100f861024a3660046117d0565b611146565b6100f8611252565b600754610102565b600554610102565b600454610102565b336001600160a01b037f000000000000000000000000000000000000000000000000000000000000000016146102c05760405162461bcd60e51b81526004016102b7906117e9565b60405180910390fd5b6000546001600160a01b03908116908216036103155760405162461bcd60e51b81526020600482015260146024820152735265676973746572656420496e7465726661636560601b60448201526064016102b7565b6001600160a01b0381166103665760405162461bcd60e51b8152602060048201526018602482015277496e76616c696420636f6e7472616374206164647265737360401b60448201526064016102b7565b600080546001600160a01b0319166001600160a01b0392909216919091179055565b6000336001600160a01b037f000000000000000000000000000000000000000000000000000000000000000016146103d25760405162461bcd60e51b81526004016102b7906117e9565b60008054604051632fa8a91360e11b81523060048201526001600160a01b0390911690635f51522690602401602060405180830381865afa15801561041b573d6000803e3d6000fd5b505050506040513d601f19601f8201168201806040525081019061043f9190611816565b91505090565b60025460609081908067ffffffffffffffff8111156104665761046661182f565b60405190808252806020026020018201604052801561048f578160200160208202803683370190505b5092508067ffffffffffffffff8111156104ab576104ab61182f565b6040519080825280602002602001820160405280156104d4578160200160208202803683370190505b50915060005b81811015610599576000600282815481106104f7576104f7611845565b9060005260206000200160009054906101000a90046001600160a01b031690508085838151811061052a5761052a611845565b60200260200101906001600160a01b031690816001600160a01b03168152505060086000826001600160a01b03166001600160a01b031681526020019081526020016000206007015484838151811061058557610585611845565b6020908102919091010152506001016104da565b50509091565b336000818152600860205260409020546001600160a01b0316146105fe5760405162461bcd60e51b815260206004820152601660248201527521b0b63632b91034b9903737ba10309039ba30b5b2b960511b60448201526064016102b7565b33600090815260086020526040902060010154806106545760405162461bcd60e51b81526020600482015260136024820152724e6f207374616b6520746f20756e7374616b6560681b60448201526064016102b7565b600080546040516339b8d5d760e01b81526001600160a01b03909116916339b8d5d79161068891903390869060040161185b565b600060405180830381600087803b1580156106a257600080fd5b505af11580156106b6573d6000803e3d6000fd5b5050505060006106c5336113c7565b600254909150811061070c5760405162461bcd60e51b815260206004820152601060248201526f14dd185ad95c881b9bdd08199bdd5b9960821b60448201526064016102b7565b60025461071b90600190611892565b81101561079d576002805461073290600190611892565b8154811061074257610742611845565b600091825260209091200154600280546001600160a01b03909216918390811061076e5761076e611845565b9060005260206000200160006101000a8154816001600160a01b0302191690836001600160a01b031602179055505b60028054806107ae576107ae6118a5565b6001900381819060005260206000200160006101000a8154906001600160a01b030219169055905581600360008282546107e89190611892565b9091555050336000908152600860205260408120600201546004805491929091610813908490611892565b9091555050336000908152600860205260408120600590810154815490929061083d908490611892565b9091555050336000908152600860205260408120600301546006805491929091610868908490611892565b9091555050336000908152600860205260408120600201546007805491929091610893908490611892565b90915550503360008181526008602052604080822080546001600160a01b031916815560018101839055600281018390556003810183905560048101839055600581018390556006810183905560070191909155517f0f5bb82176feb1b5e747e28471aa92156a04d9f3ab9f45f28e2d704232b93f75906109179085815260200190565b60405180910390a25050565b336001600160a01b037f0000000000000000000000000000000000000000000000000000000000000000161461096b5760405162461bcd60e51b81526004016102b7906117e9565b600180546001600160a01b0319166001600160a01b0392909216919091179055565b336001600160a01b037f00000000000000000000000000000000000000000000000000000000000000001614806109ce57506001546001600160a01b031633145b806109d857503330145b6109f45760405162461bcd60e51b81526004016102b7906118bb565b60006109fe611424565b90506000815111610a475760405162461bcd60e51b8152602060048201526013602482015272139bc81cdd185ad95c881d1bc81c995dd85c99606a1b60448201526064016102b7565b60005b8151811015610be9576000828281518110610a6757610a67611845565b6020908102919091018101516001600160a01b038116600090815260089092526040909120600581015460029091015491925090610aa482611578565b600080546040516339b8d5d760e01b81526001600160a01b03909116916339b8d5d791610ad891908790869060040161185b565b600060405180830381600087803b158015610af257600080fd5b505af1158015610b06573d6000803e3d6000fd5b5050506001600160a01b03841660009081526008602052604081206002810154600390910180549193509190610b3d9084906118f2565b909155506103849050610b5142600a6118f2565b610b5b91906118f2565b6001600160a01b03841660009081526008602052604081206007019190915560048054839290610b8c9084906118f2565b925050819055508160066000828254610ba591906118f2565b90915550506001600160a01b03831660009081526008602052604081206004018054849290610bd59084906118f2565b909155505060019093019250610a4a915050565b5050565b336001600160a01b037f00000000000000000000000000000000000000000000000000000000000000001614610c355760405162461bcd60e51b81526004016102b7906117e9565b6000600754600654610c479190611892565b60008054604051632fa8a91360e11b815230600482015292935090916001600160a01b0390911690635f51522690602401602060405180830381865afa158015610c95573d6000803e3d6000fd5b505050506040513d601f19601f82011682018060405250810190610cb99190611816565b60035460055491925090610cdf5760405162461bcd60e51b81526004016102b790611905565b808211610cfe5760405162461bcd60e51b81526004016102b79061192d565b600054604051630624515160e31b81526001600160a01b03909116906331228a8890610d30908790879060040161195f565b600060405180830381600087803b158015610d4a57600080fd5b505af1158015610d5e573d6000803e3d6000fd5b5050505050505050565b60008111610dc35760405162461bcd60e51b815260206004820152602260248201527f5374616b652076616c7565206d7573742062652067726561746572207468616e604482015261020360f41b60648201526084016102b7565b6101f48111610e0f5760405162461bcd60e51b8152602060048201526018602482015277135a5b9a5b5d5b481cdd185ad9481a5cc80d4c0c0815961560421b60448201526064016102b7565b623d09008110610e615760405162461bcd60e51b815260206004820152601f60248201527f4d6178696d756d207374616b6520697320342e3030302e30303030205658540060448201526064016102b7565b3360009081526008602052604090206001015415610ec15760405162461bcd60e51b815260206004820152601b60248201527f596f7520616c7265616479206f6e207374616b6564207068617365000000000060448201526064016102b7565b6000610ed582670de0b6b3a7640000611978565b90506000610ee442600a6118f2565b90506000610ef1826116c0565b90506000610efe846116d6565b90506000610f0b856116fd565b6000546040516339b8d5d760e01b81529192506001600160a01b0316906339b8d5d790610f419060019033908a9060040161185b565b600060405180830381600087803b158015610f5b57600080fd5b505af1158015610f6f573d6000803e3d6000fd5b50505050604051806101000160405280336001600160a01b0316815260200186815260200183815260200160008152602001600081526020018281526020018581526020018481525060086000336001600160a01b03166001600160a01b0316815260200190815260200160002060008201518160000160006101000a8154816001600160a01b0302191690836001600160a01b031602179055506020820151816001015560408201518160020155606082015181600301556080820151816004015560a0820151816005015560c0820151816006015560e08201518160070155905050806005600082825461106591906118f2565b90915550506002805460018101825560009182527f405787fa12a823e0f2b7631cc41b3ba8828b3321ca811111fa75cd3aa3bb5ace0180546001600160a01b03191633179055600380548792906110bd9084906118f2565b9250508190555081600760008282546110d691906118f2565b90915550503360008181526008602090815260409182902060020154825189815260059281019290925281830152606081018790526080810186905290517f6381ea17a5324d29cc015352644672ead5185c1c61a0d3a521eda97e35cec97e9181900360a00190a2505050505050565b336001600160a01b037f0000000000000000000000000000000000000000000000000000000000000000161461118e5760405162461bcd60e51b81526004016102b7906117e9565b336111cd5760405162461bcd60e51b815260206004820152600f60248201526e496e76616c6964204164647265737360881b60448201526064016102b7565b6000546040516355dce81760e11b8152600481018390526001600160a01b039091169063abb9d02e90602401600060405180830381600087803b15801561121357600080fd5b505af1158015611227573d6000803e3d6000fd5b5050505080670de0b6b3a764000061123f9190611978565b3060009081526009602052604090205550565b336001600160a01b037f0000000000000000000000000000000000000000000000000000000000000000161461129a5760405162461bcd60e51b81526004016102b7906117e9565b60008054604051632fa8a91360e11b81523060048201526001600160a01b0390911690635f51522690602401602060405180830381865afa1580156112e3573d6000803e3d6000fd5b505050506040513d601f19601f820116820180604052508101906113079190611816565b90506000600354826113199190611892565b6003546005549192509061133f5760405162461bcd60e51b81526004016102b790611905565b80831161135e5760405162461bcd60e51b81526004016102b79061192d565b600054604051630624515160e31b81526001600160a01b03909116906331228a8890611390903390869060040161195f565b600060405180830381600087803b1580156113aa57600080fd5b505af11580156113be573d6000803e3d6000fd5b50505050505050565b6000805b60025481101561141a57826001600160a01b0316600282815481106113f2576113f2611845565b6000918252602090912001546001600160a01b0316036114125792915050565b6001016113cb565b5050600254919050565b60025460609042906000805b828110156114935760006002828154811061144d5761144d611845565b60009182526020808320909101546001600160a01b03168083526008909152604090912060070154909150851061148a576114878361198f565b92505b50600101611430565b5060008167ffffffffffffffff8111156114af576114af61182f565b6040519080825280602002602001820160405280156114d8578160200160208202803683370190505b5090506000805b8481101561156d576000600282815481106114fc576114fc611845565b60009182526020808320909101546001600160a01b031680835260089091526040909120600701549091508710611564578084848151811061154057611540611845565b6001600160a01b03909216602092830291909101909101526115618361198f565b92505b506001016114df565b509095945050505050565b336001600160a01b037f00000000000000000000000000000000000000000000000000000000000000001614806115b957506001546001600160a01b031633145b806115c357503330145b6115df5760405162461bcd60e51b81526004016102b7906118bb565b600081116116245760405162461bcd60e51b81526020600482015260126024820152714e6f2072657761726420746f20636c61696d60701b60448201526064016102b7565b600054604051631f99666d60e31b81526001600160a01b039091169063fccb336890611656903090859060040161195f565b600060405180830381600087803b15801561167057600080fd5b505af1158015611684573d6000803e3d6000fd5b50506040518381523092507fdadc5da55c83f4bb7af8c16ebe77832c279b34e6f2ba2cd24111c5a0e63fd086915060200160405180910390a250565b6000806116cf610384846118f2565b9392505050565b60006116f760646116f160056116eb866116fd565b9061170b565b90611717565b92915050565b60006116f760646116f184600f5b60006116cf8284611978565b60006116cf82846119a8565b60006020828403121561173557600080fd5b81356001600160a01b03811681146116cf57600080fd5b604080825283519082018190526000906020906060840190828701845b8281101561178e5781516001600160a01b031684529284019290840190600101611769565b5050508381038285015284518082528583019183019060005b818110156117c3578351835292840192918401916001016117a7565b5090979650505050505050565b6000602082840312156117e257600080fd5b5035919050565b60208082526013908201527221b0b63632b91034b9903737ba1027bbb732b960691b604082015260600190565b60006020828403121561182857600080fd5b5051919050565b634e487b7160e01b600052604160045260246000fd5b634e487b7160e01b600052603260045260246000fd5b92151583526001600160a01b03919091166020830152604082015260600190565b634e487b7160e01b600052601160045260246000fd5b818103818111156116f7576116f761187c565b634e487b7160e01b600052603160045260246000fd5b6020808252601b908201527f43616c6c6572206973206e6f7420616e20417574686f72697a65640000000000604082015260600190565b808201808211156116f7576116f761187c565b6020808252600e908201526d546f6b656e20697320656d70747960901b604082015260600190565b60208082526018908201527715da5d1a191c985dd85b08131a5b5a5d0814995858da195960421b604082015260600190565b6001600160a01b03929092168252602082015260400190565b80820281158282048414176116f7576116f761187c565b6000600182016119a1576119a161187c565b5060010190565b6000826119c557634e487b7160e01b600052601260045260246000fd5b50049056fea26469706673582212206087c7eb29cd89cc33a8792d561e7b12c787dec5e74ea088e29a0ade64eff94a64736f6c63430008160033",
  "devdoc": {
    "kind": "dev",
    "methods": {},
    "version": 1
  },
  "userdoc": {
    "kind": "user",
    "methods": {},
    "version": 1
  },
  "storageLayout": {
    "storage": [
      {
        "astId": 5316,
        "contract": "contracts/VotreXStaker.sol:VotreXStake",
        "label": "VXInterface",
        "offset": 0,
        "slot": "0",
        "type": "t_contract(VotreXTXInterface)8832"
      },
      {
        "astId": 5326,
        "contract": "contracts/VotreXStaker.sol:VotreXStake",
        "label": "Automation",
        "offset": 0,
        "slot": "1",
        "type": "t_address"
      },
      {
        "astId": 5329,
        "contract": "contracts/VotreXStaker.sol:VotreXStake",
        "label": "Stakeraddress",
        "offset": 0,
        "slot": "2",
        "type": "t_array(t_address)dyn_storage"
      },
      {
        "astId": 5331,
        "contract": "contracts/VotreXStaker.sol:VotreXStake",
        "label": "totalStake",
        "offset": 0,
        "slot": "3",
        "type": "t_uint256"
      },
      {
        "astId": 5333,
        "contract": "contracts/VotreXStaker.sol:VotreXStake",
        "label": "sharedRewards",
        "offset": 0,
        "slot": "4",
        "type": "t_uint256"
      },
      {
        "astId": 5335,
        "contract": "contracts/VotreXStaker.sol:VotreXStake",
        "label": "totalPrintToken",
        "offset": 0,
        "slot": "5",
        "type": "t_uint256"
      },
      {
        "astId": 5337,
        "contract": "contracts/VotreXStaker.sol:VotreXStake",
        "label": "accumulativePrintedToken",
        "offset": 0,
        "slot": "6",
        "type": "t_uint256"
      },
      {
        "astId": 5339,
        "contract": "contracts/VotreXStaker.sol:VotreXStake",
        "label": "totalInitialRewards",
        "offset": 0,
        "slot": "7",
        "type": "t_uint256"
      },
      {
        "astId": 5344,
        "contract": "contracts/VotreXStaker.sol:VotreXStake",
        "label": "stakerInfo",
        "offset": 0,
        "slot": "8",
        "type": "t_mapping(t_address,t_struct(StakerStorage)5365_storage)"
      },
      {
        "astId": 5348,
        "contract": "contracts/VotreXStaker.sol:VotreXStake",
        "label": "allowances",
        "offset": 0,
        "slot": "9",
        "type": "t_mapping(t_address,t_uint256)"
      }
    ],
    "types": {
      "t_address": {
        "encoding": "inplace",
        "label": "address",
        "numberOfBytes": "20"
      },
      "t_array(t_address)dyn_storage": {
        "base": "t_address",
        "encoding": "dynamic_array",
        "label": "address[]",
        "numberOfBytes": "32"
      },
      "t_contract(VotreXTXInterface)8832": {
        "encoding": "inplace",
        "label": "contract VotreXTXInterface",
        "numberOfBytes": "20"
      },
      "t_mapping(t_address,t_struct(StakerStorage)5365_storage)": {
        "encoding": "mapping",
        "key": "t_address",
        "label": "mapping(address => struct VotreXStake.StakerStorage)",
        "numberOfBytes": "32",
        "value": "t_struct(StakerStorage)5365_storage"
      },
      "t_mapping(t_address,t_uint256)": {
        "encoding": "mapping",
        "key": "t_address",
        "label": "mapping(address => uint256)",
        "numberOfBytes": "32",
        "value": "t_uint256"
      },
      "t_struct(StakerStorage)5365_storage": {
        "encoding": "inplace",
        "label": "struct VotreXStake.StakerStorage",
        "members": [
          {
            "astId": 5350,
            "contract": "contracts/VotreXStaker.sol:VotreXStake",
            "label": "StakerAddress",
            "offset": 0,
            "slot": "0",
            "type": "t_address"
          },
          {
            "astId": 5352,
            "contract": "contracts/VotreXStaker.sol:VotreXStake",
            "label": "StakingValue",
            "offset": 0,
            "slot": "1",
            "type": "t_uint256"
          },
          {
            "astId": 5354,
            "contract": "contracts/VotreXStaker.sol:VotreXStake",
            "label": "initialReward",
            "offset": 0,
            "slot": "2",
            "type": "t_uint256"
          },
          {
            "astId": 5356,
            "contract": "contracts/VotreXStaker.sol:VotreXStake",
            "label": "accumulativeReward",
            "offset": 0,
            "slot": "3",
            "type": "t_uint256"
          },
          {
            "astId": 5358,
            "contract": "contracts/VotreXStaker.sol:VotreXStake",
            "label": "totalPrintedToken",
            "offset": 0,
            "slot": "4",
            "type": "t_uint256"
          },
          {
            "astId": 5360,
            "contract": "contracts/VotreXStaker.sol:VotreXStake",
            "label": "PrintValue",
            "offset": 0,
            "slot": "5",
            "type": "t_uint256"
          },
          {
            "astId": 5362,
            "contract": "contracts/VotreXStaker.sol:VotreXStake",
            "label": "startStakingTime",
            "offset": 0,
            "slot": "6",
            "type": "t_uint256"
          },
          {
            "astId": 5364,
            "contract": "contracts/VotreXStaker.sol:VotreXStake",
            "label": "rewardTime",
            "offset": 0,
            "slot": "7",
            "type": "t_uint256"
          }
        ],
        "numberOfBytes": "256"
      },
      "t_uint256": {
        "encoding": "inplace",
        "label": "uint256",
        "numberOfBytes": "32"
      }
    }
  }
}