{
  "address": "0x8d644bd12D1295f25c5B045aE5e29903F6556290",
  "abi": [
    {
      "inputs": [
        {
          "internalType": "address",
          "name": "_tokenAddress",
          "type": "address"
        }
      ],
      "stateMutability": "nonpayable",
      "type": "constructor"
    },
    {
      "anonymous": false,
      "inputs": [
        {
          "indexed": false,
          "internalType": "address",
          "name": "Buyer",
          "type": "address"
        },
        {
          "indexed": false,
          "internalType": "uint256",
          "name": "VXTTransfered",
          "type": "uint256"
        }
      ],
      "name": "BuyVXTEvent",
      "type": "event"
    },
    {
      "anonymous": false,
      "inputs": [
        {
          "indexed": false,
          "internalType": "address",
          "name": "Recipient",
          "type": "address"
        },
        {
          "indexed": false,
          "internalType": "uint256",
          "name": "DroppedValue",
          "type": "uint256"
        }
      ],
      "name": "TokenDropped",
      "type": "event"
    },
    {
      "anonymous": false,
      "inputs": [
        {
          "indexed": false,
          "internalType": "address",
          "name": "Receiver",
          "type": "address"
        },
        {
          "indexed": false,
          "internalType": "uint256",
          "name": "VXTTransfered",
          "type": "uint256"
        }
      ],
      "name": "TransferedVXTEvent",
      "type": "event"
    },
    {
      "anonymous": false,
      "inputs": [
        {
          "indexed": false,
          "internalType": "address",
          "name": "Voter",
          "type": "address"
        },
        {
          "indexed": false,
          "internalType": "uint256",
          "name": "VotedPower",
          "type": "uint256"
        }
      ],
      "name": "VotedEvent",
      "type": "event"
    },
    {
      "anonymous": false,
      "inputs": [
        {
          "indexed": false,
          "internalType": "address",
          "name": "from",
          "type": "address"
        },
        {
          "indexed": false,
          "internalType": "address",
          "name": "Receiver",
          "type": "address"
        },
        {
          "indexed": false,
          "internalType": "uint256",
          "name": "VXTTransfered",
          "type": "uint256"
        }
      ],
      "name": "withdrawnToken",
      "type": "event"
    },
    {
      "inputs": [
        {
          "internalType": "address",
          "name": "InterfaceMaster",
          "type": "address"
        }
      ],
      "name": "ContractStorage",
      "outputs": [
        {
          "internalType": "address",
          "name": "Authorized",
          "type": "address"
        },
        {
          "internalType": "address",
          "name": "tokenContract",
          "type": "address"
        },
        {
          "internalType": "address",
          "name": "stakingContract",
          "type": "address"
        },
        {
          "internalType": "address",
          "name": "dexContract",
          "type": "address"
        },
        {
          "internalType": "address",
          "name": "VotreXContract",
          "type": "address"
        },
        {
          "internalType": "address",
          "name": "airdropContract",
          "type": "address"
        }
      ],
      "stateMutability": "view",
      "type": "function"
    },
    {
      "inputs": [
        {
          "internalType": "bool",
          "name": "isStaking",
          "type": "bool"
        },
        {
          "internalType": "address",
          "name": "_Recipient",
          "type": "address"
        },
        {
          "internalType": "uint256",
          "name": "_value",
          "type": "uint256"
        }
      ],
      "name": "Stake",
      "outputs": [],
      "stateMutability": "nonpayable",
      "type": "function"
    },
    {
      "inputs": [
        {
          "internalType": "address",
          "name": "_Sender",
          "type": "address"
        },
        {
          "internalType": "uint256",
          "name": "_value",
          "type": "uint256"
        }
      ],
      "name": "VoteTx",
      "outputs": [],
      "stateMutability": "nonpayable",
      "type": "function"
    },
    {
      "inputs": [
        {
          "internalType": "address",
          "name": "_Recipient",
          "type": "address"
        },
        {
          "internalType": "uint256",
          "name": "_value",
          "type": "uint256"
        }
      ],
      "name": "VotreXTx",
      "outputs": [],
      "stateMutability": "nonpayable",
      "type": "function"
    },
    {
      "inputs": [
        {
          "internalType": "uint256",
          "name": "amount",
          "type": "uint256"
        }
      ],
      "name": "approveAirdrop",
      "outputs": [],
      "stateMutability": "nonpayable",
      "type": "function"
    },
    {
      "inputs": [
        {
          "internalType": "uint256",
          "name": "amount",
          "type": "uint256"
        }
      ],
      "name": "approveDeX",
      "outputs": [],
      "stateMutability": "nonpayable",
      "type": "function"
    },
    {
      "inputs": [
        {
          "internalType": "uint256",
          "name": "amount",
          "type": "uint256"
        }
      ],
      "name": "approveStaking",
      "outputs": [],
      "stateMutability": "nonpayable",
      "type": "function"
    },
    {
      "inputs": [
        {
          "internalType": "uint32",
          "name": "amount",
          "type": "uint32"
        }
      ],
      "name": "approveTxInterface",
      "outputs": [],
      "stateMutability": "nonpayable",
      "type": "function"
    },
    {
      "inputs": [
        {
          "internalType": "uint256",
          "name": "amount",
          "type": "uint256"
        }
      ],
      "name": "approveVotreX",
      "outputs": [],
      "stateMutability": "nonpayable",
      "type": "function"
    },
    {
      "inputs": [
        {
          "internalType": "address",
          "name": "_Recipient",
          "type": "address"
        },
        {
          "internalType": "uint256",
          "name": "_value",
          "type": "uint256"
        }
      ],
      "name": "balanceTx",
      "outputs": [],
      "stateMutability": "nonpayable",
      "type": "function"
    },
    {
      "inputs": [],
      "name": "changeSystemState",
      "outputs": [],
      "stateMutability": "nonpayable",
      "type": "function"
    },
    {
      "inputs": [
        {
          "internalType": "address",
          "name": "_ContractAddress",
          "type": "address"
        }
      ],
      "name": "checkApprovalLimit",
      "outputs": [
        {
          "internalType": "uint256",
          "name": "",
          "type": "uint256"
        }
      ],
      "stateMutability": "view",
      "type": "function"
    },
    {
      "inputs": [
        {
          "internalType": "address",
          "name": "account",
          "type": "address"
        }
      ],
      "name": "checkBalance",
      "outputs": [
        {
          "internalType": "uint256",
          "name": "",
          "type": "uint256"
        }
      ],
      "stateMutability": "view",
      "type": "function"
    },
    {
      "inputs": [],
      "name": "getTokenContract",
      "outputs": [
        {
          "internalType": "address",
          "name": "",
          "type": "address"
        }
      ],
      "stateMutability": "view",
      "type": "function"
    },
    {
      "inputs": [],
      "name": "isActivatedInterfaceCheck",
      "outputs": [
        {
          "internalType": "bool",
          "name": "isActivatedInterface",
          "type": "bool"
        }
      ],
      "stateMutability": "view",
      "type": "function"
    },
    {
      "inputs": [
        {
          "internalType": "address",
          "name": "_recipient",
          "type": "address"
        },
        {
          "internalType": "uint256",
          "name": "_rewardValue",
          "type": "uint256"
        }
      ],
      "name": "printVXT",
      "outputs": [],
      "stateMutability": "nonpayable",
      "type": "function"
    },
    {
      "inputs": [
        {
          "internalType": "address",
          "name": "_AirdropContract",
          "type": "address"
        }
      ],
      "name": "setAirdrop",
      "outputs": [],
      "stateMutability": "nonpayable",
      "type": "function"
    },
    {
      "inputs": [
        {
          "internalType": "address",
          "name": "_dexContract",
          "type": "address"
        }
      ],
      "name": "setDeX",
      "outputs": [],
      "stateMutability": "nonpayable",
      "type": "function"
    },
    {
      "inputs": [
        {
          "internalType": "address",
          "name": "_stakingAddress",
          "type": "address"
        }
      ],
      "name": "setStakingContract",
      "outputs": [],
      "stateMutability": "nonpayable",
      "type": "function"
    },
    {
      "inputs": [
        {
          "internalType": "address",
          "name": "_VotreXContract",
          "type": "address"
        }
      ],
      "name": "setVotreXSys",
      "outputs": [],
      "stateMutability": "nonpayable",
      "type": "function"
    },
    {
      "inputs": [],
      "name": "totalSupplies",
      "outputs": [
        {
          "internalType": "uint256",
          "name": "",
          "type": "uint256"
        }
      ],
      "stateMutability": "view",
      "type": "function"
    }
  ],
  "transactionHash": "0xdbf3deb386cb26d124a796fbbfabf70a51998f39b1ac888c435c445eb487829e",
  "args": [
    "0x0128B2D97B979F7e137Fb9eb73621EAc64eD4E74"
  ],
  "numDeployments": 2,
  "solcInputHash": "f5b9ab12b869c94ceb6eaa4d5f65adf4",
  "bytecode": "0x60e06040526a0c685fa11e01ec6f00000060c0523480156200002057600080fd5b50604051620049263803806200492683398101604081905262000043916200008b565b3360a08190526000805460ff191681556001600160a01b039290921660808190529082526004602052604090912060010180546001600160a01b0319169091179055620000bd565b6000602082840312156200009e57600080fd5b81516001600160a01b0381168114620000b657600080fd5b9392505050565b60805160a05160c051614553620003d3600039600081816107a801528181610a5c01528181610eb20152818161123001528181611bbf01528181611c7a015281816120ab015281816121660152818161252701528181612b6b01528181612fb90152818161311001528181613443015281816138ee0152613d130152600081816105f30152818161256f015281816126b8015281816127fd01528181612db70152818161300101528181613739015281816137d8015281816139dd01528181613acd01528181613b7a01528181613c160152613e330152600081816103b401528181610487015281816105130152818161059f015281816106f2015281816107fc01528181610904015281816109cc01528181610a8601528181610b1d01528181610bb601528181610c3601528181610cb801528181610d3a01528181610e2201528181610edc01528181610f7301528181610fc301528181611043015281816110c5015281816111a00152818161125a015281816112f101528181611341015281816113c101528181611443015281816114c5015281816115a201528181611636015281816116860152818161170601528181611788015281816118d601528181611a9401528181611b2e01528181611be901528181611ca401528181611d3b01528181611d8b01528181611e0b01528181611e8d01528181611f0f01528181611f800152818161201a015281816120d5015281816121900152818161222701528181612277015281816122f7015281816123790152818161244101528181612a2c01528181612ac601528181612b9501528181612c2c01528181612c7c01528181612cfc01528181612ec7015281816130420152818161313a015281816131d40152818161326e015281816132c601528181613346015281816133c30152818161346d01528181613507015281816135a1015281816135f401528181613674015281816136f90152818161385e01528181613918015281816139a701528181613a1601528181613a9501528181613b3601528181613c5701528181613d5f01528181613da3015261401b01526145536000f3fe608060405234801561001057600080fd5b50600436106101365760003560e01c80639497af9d116100b8578063b4beb8da1161007c578063b4beb8da14610272578063b5e2e2ba14610285578063b689f63714610321578063d068cdc514610334578063f37693c51461033c578063fccb33681461034f57600080fd5b80639497af9d1461021b5780639dd373b914610231578063a2411ee414610244578063a43064cc14610257578063abb9d02e1461025f57600080fd5b806339b8d5d7116100ff57806339b8d5d7146101bc5780635f515226146101cf5780636d779b04146101e257806372820dbc146101f55780637ec9199f1461020857600080fd5b8062f07fb61461013b57806328b7bede146101615780632a099a7a1461018157806331228a881461019657806338997322146101a9575b600080fd5b61014e610149366004614069565b610362565b6040519081526020015b60405180910390f35b6101696105e6565b6040516001600160a01b039091168152602001610158565b61019461018f36600461408b565b610659565b005b6101946101a43660046140a4565b61086b565b6101946101b736600461408b565b61183d565b6101946101ca3660046140df565b6119c5565b61014e6101dd366004614069565b612332565b6101946101f036600461408b565b6123a8565b610194610203366004614069565b612564565b610194610216366004614069565b6126ad565b60005460ff166040519015158152602001610158565b61019461023f366004614069565b6127f2565b6101946102523660046140a4565b61293b565b610194612dac565b61019461026d36600461408b565b612e2e565b6101946102803660046140a4565b612ff6565b6102df610293366004614069565b60046020819052600091825260409091208054600182015460028301546003840154948401546005909401546001600160a01b0393841695928416949184169392831692918216911686565b604080516001600160a01b03978816815295871660208701529386169385019390935290841660608401528316608083015290911660a082015260c001610158565b61019461032f36600461411d565b613c0b565b61014e613d9f565b61019461034a366004614069565b613e28565b61019461035d3660046140a4565b613f6f565b336000908152600460208190526040822001546001600160a01b039081169083160361043457336000908152600460208190526040918290208101549151636eb1769f60e11b81526001600160a01b037f000000000000000000000000000000000000000000000000000000000000000081169363dd62ed3e936103ed939190921691309101614143565b602060405180830381865afa15801561040a573d6000803e3d6000fd5b505050506040513d601f19601f8201168201806040525081019061042e919061415d565b92915050565b336000908152600460205260409020600301546001600160a01b03908116908316036104c05733600090815260046020819052604091829020600301549151636eb1769f60e11b81526001600160a01b037f000000000000000000000000000000000000000000000000000000000000000081169363dd62ed3e936103ed939190921691309101614143565b336000908152600460205260409020600201546001600160a01b039081169083160361054c5733600090815260046020819052604091829020600201549151636eb1769f60e11b81526001600160a01b037f000000000000000000000000000000000000000000000000000000000000000081169363dd62ed3e936103ed939190921691309101614143565b336000908152600460205260409020600501546001600160a01b03908116908316036105d85733600090815260046020819052604091829020600501549151636eb1769f60e11b81526001600160a01b037f000000000000000000000000000000000000000000000000000000000000000081169363dd62ed3e936103ed939190921691309101614143565b50610194919050565b919050565b6000336001600160a01b037f000000000000000000000000000000000000000000000000000000000000000016146106395760405162461bcd60e51b815260040161063090614176565b60405180910390fd5b50336000908152600460205260409020600101546001600160a01b031690565b6001546001600160a01b031633148061067c57506003546001600160a01b031633145b80610696575060005461010090046001600160a01b031633145b806106ab57506002546001600160a01b031633145b6106c75760405162461bcd60e51b8152600401610630906141ab565b60005460ff1615156001146106ee5760405162461bcd60e51b8152600401610630906141f3565b60007f00000000000000000000000000000000000000000000000000000000000000006001600160a01b031663313ce5676040518163ffffffff1660e01b8152600401602060405180830381865afa15801561074e573d6000803e3d6000fd5b505050506040513d601f19601f820116820180604052508101906107729190614221565b61077d90600a61433e565b610787908361434d565b9050306107a65760405162461bcd60e51b815260040161063090614364565b7f000000000000000000000000000000000000000000000000000000000000000081106107e55760405162461bcd60e51b81526004016106309061439b565b60405163b23c2ed760e01b81526001600160a01b037f0000000000000000000000000000000000000000000000000000000000000000169063b23c2ed790610835903390309086906004016143d2565b600060405180830381600087803b15801561084f57600080fd5b505af1158015610863573d6000803e3d6000fd5b505050505050565b6001546001600160a01b031633148061088e57506003546001600160a01b031633145b806108a8575060005461010090046001600160a01b031633145b806108bd57506002546001600160a01b031633145b6108d95760405162461bcd60e51b8152600401610630906141ab565b60005460ff1615156001146109005760405162461bcd60e51b8152600401610630906141f3565b60007f00000000000000000000000000000000000000000000000000000000000000006001600160a01b031663313ce5676040518163ffffffff1660e01b8152600401602060405180830381865afa158015610960573d6000803e3d6000fd5b505050506040513d601f19601f820116820180604052508101906109849190614221565b61098f90600a61433e565b610999908361434d565b60005490915061010090046001600160a01b03163303610df757604051636eb1769f60e11b815281906001600160a01b037f0000000000000000000000000000000000000000000000000000000000000000169063dd62ed3e90610a039033903090600401614143565b602060405180830381865afa158015610a20573d6000803e3d6000fd5b505050506040513d601f19601f82011682018060405250810190610a44919061415d565b10158015610b015750604051636eb1769f60e11b81527f0000000000000000000000000000000000000000000000000000000000000000906001600160a01b037f0000000000000000000000000000000000000000000000000000000000000000169063dd62ed3e90610abd9033903090600401614143565b602060405180830381865afa158015610ada573d6000803e3d6000fd5b505050506040513d601f19601f82011682018060405250810190610afe919061415d565b10155b15610b9f576040516323b872dd60e01b81526001600160a01b037f000000000000000000000000000000000000000000000000000000000000000016906323b872dd90610b56908690339086906004016143d2565b6020604051808303816000875af1158015610b75573d6000803e3d6000fd5b505050506040513d601f19601f82011682018060405250810190610b9991906143f6565b50505050565b60405163b23c2ed760e01b81526001600160a01b037f0000000000000000000000000000000000000000000000000000000000000000169063b23c2ed790610bef903390879086906004016143d2565b600060405180830381600087803b158015610c0957600080fd5b505af1158015610c1d573d6000803e3d6000fd5b505060405163b23c2ed760e01b81526001600160a01b037f000000000000000000000000000000000000000000000000000000000000000016925063b23c2ed79150610c71903390309086906004016143d2565b600060405180830381600087803b158015610c8b57600080fd5b505af1158015610c9f573d6000803e3d6000fd5b505060405163b23c2ed760e01b81526001600160a01b037f000000000000000000000000000000000000000000000000000000000000000016925063b23c2ed79150610cf3908690309086906004016143d2565b600060405180830381600087803b158015610d0d57600080fd5b505af1158015610d21573d6000803e3d6000fd5b50506040516323b872dd60e01b81526001600160a01b037f00000000000000000000000000000000000000000000000000000000000000001692506323b872dd9150610d75903390879086906004016143d2565b6020604051808303816000875af1158015610d94573d6000803e3d6000fd5b505050506040513d601f19601f82011682018060405250810190610db891906143f6565b507f06957233af747b59eed5e509969b9a7a81469c67792deb56cdfddee9f3f6079d3382604051610dea929190614413565b60405180910390a1505050565b6001546001600160a01b0316330361117557604051636eb1769f60e11b815282906001600160a01b037f0000000000000000000000000000000000000000000000000000000000000000169063dd62ed3e90610e599033903090600401614143565b602060405180830381865afa158015610e76573d6000803e3d6000fd5b505050506040513d601f19601f82011682018060405250810190610e9a919061415d565b10158015610f575750604051636eb1769f60e11b81527f0000000000000000000000000000000000000000000000000000000000000000906001600160a01b037f0000000000000000000000000000000000000000000000000000000000000000169063dd62ed3e90610f139033903090600401614143565b602060405180830381865afa158015610f30573d6000803e3d6000fd5b505050506040513d601f19601f82011682018060405250810190610f54919061415d565b10155b15610fac576040516323b872dd60e01b81526001600160a01b037f000000000000000000000000000000000000000000000000000000000000000016906323b872dd90610b56903390879087906004016143d2565b60405163b23c2ed760e01b81526001600160a01b037f0000000000000000000000000000000000000000000000000000000000000000169063b23c2ed790610ffc903390879087906004016143d2565b600060405180830381600087803b15801561101657600080fd5b505af115801561102a573d6000803e3d6000fd5b505060405163b23c2ed760e01b81526001600160a01b037f000000000000000000000000000000000000000000000000000000000000000016925063b23c2ed7915061107e903390309087906004016143d2565b600060405180830381600087803b15801561109857600080fd5b505af11580156110ac573d6000803e3d6000fd5b50506040516323b872dd60e01b81526001600160a01b037f00000000000000000000000000000000000000000000000000000000000000001692506323b872dd9150611100903390879087906004016143d2565b6020604051808303816000875af115801561111f573d6000803e3d6000fd5b505050506040513d601f19601f8201168201806040525081019061114391906143f6565b507f22a5ab58f6395a600fde0f9df00fc08b146e72896e9c56644f7f89d6cc03cc6b3383604051610dea929190614413565b6003546001600160a01b0316330361157757604051636eb1769f60e11b815282906001600160a01b037f0000000000000000000000000000000000000000000000000000000000000000169063dd62ed3e906111d79033903090600401614143565b602060405180830381865afa1580156111f4573d6000803e3d6000fd5b505050506040513d601f19601f82011682018060405250810190611218919061415d565b101580156112d55750604051636eb1769f60e11b81527f0000000000000000000000000000000000000000000000000000000000000000906001600160a01b037f0000000000000000000000000000000000000000000000000000000000000000169063dd62ed3e906112919033903090600401614143565b602060405180830381865afa1580156112ae573d6000803e3d6000fd5b505050506040513d601f19601f820116820180604052508101906112d2919061415d565b10155b1561132a576040516323b872dd60e01b81526001600160a01b037f000000000000000000000000000000000000000000000000000000000000000016906323b872dd90610b56903390879087906004016143d2565b60405163b23c2ed760e01b81526001600160a01b037f0000000000000000000000000000000000000000000000000000000000000000169063b23c2ed79061137a903390879087906004016143d2565b600060405180830381600087803b15801561139457600080fd5b505af11580156113a8573d6000803e3d6000fd5b505060405163b23c2ed760e01b81526001600160a01b037f000000000000000000000000000000000000000000000000000000000000000016925063b23c2ed791506113fc903390309087906004016143d2565b600060405180830381600087803b15801561141657600080fd5b505af115801561142a573d6000803e3d6000fd5b505060405163b23c2ed760e01b81526001600160a01b037f000000000000000000000000000000000000000000000000000000000000000016925063b23c2ed7915061147e908690309087906004016143d2565b600060405180830381600087803b15801561149857600080fd5b505af11580156114ac573d6000803e3d6000fd5b50506040516323b872dd60e01b81526001600160a01b037f00000000000000000000000000000000000000000000000000000000000000001692506323b872dd9150611500903390879087906004016143d2565b6020604051808303816000875af115801561151f573d6000803e3d6000fd5b505050506040513d601f19601f8201168201806040525081019061154391906143f6565b507f670e827a513d5396bb0296149788bf12de7117212a7ff87427567ef17304d9d6338484604051610dea939291906143d2565b6002546001600160a01b0316330361183857604051636eb1769f60e11b815282906001600160a01b037f0000000000000000000000000000000000000000000000000000000000000000169063dd62ed3e906115d99033903090600401614143565b602060405180830381865afa1580156115f6573d6000803e3d6000fd5b505050506040513d601f19601f8201168201806040525081019061161a919061415d565b1061166f576040516323b872dd60e01b81526001600160a01b037f000000000000000000000000000000000000000000000000000000000000000016906323b872dd90610b56903390879087906004016143d2565b60405163b23c2ed760e01b81526001600160a01b037f0000000000000000000000000000000000000000000000000000000000000000169063b23c2ed7906116bf903390879087906004016143d2565b600060405180830381600087803b1580156116d957600080fd5b505af11580156116ed573d6000803e3d6000fd5b505060405163b23c2ed760e01b81526001600160a01b037f000000000000000000000000000000000000000000000000000000000000000016925063b23c2ed79150611741903390309087906004016143d2565b600060405180830381600087803b15801561175b57600080fd5b505af115801561176f573d6000803e3d6000fd5b50506040516323b872dd60e01b81526001600160a01b037f00000000000000000000000000000000000000000000000000000000000000001692506323b872dd91506117c3903390879087906004016143d2565b6020604051808303816000875af11580156117e2573d6000803e3d6000fd5b505050506040513d601f19601f8201168201806040525081019061180691906143f6565b507f1799c88637ff4c9e1628a128e950e8861d19b654d8e55679325d60f4ea78c27c8383604051610dea929190614413565b505050565b6001546001600160a01b031633148061186057506003546001600160a01b031633145b8061187a575060005461010090046001600160a01b031633145b8061188f57506002546001600160a01b031633145b6118ab5760405162461bcd60e51b8152600401610630906141ab565b60005460ff1615156001146118d25760405162461bcd60e51b8152600401610630906141f3565b60007f00000000000000000000000000000000000000000000000000000000000000006001600160a01b031663313ce5676040518163ffffffff1660e01b8152600401602060405180830381865afa158015611932573d6000803e3d6000fd5b505050506040513d601f19601f820116820180604052508101906119569190614221565b61196190600a61433e565b61196b908361434d565b9050336107a65760405162461bcd60e51b815260206004820152602260248201527f496e74657266616365202d20566f747265582041646472657373206e6f742073604482015261195d60f21b6064820152608401610630565b6001546001600160a01b03163314806119e857506003546001600160a01b031633145b80611a02575060005461010090046001600160a01b031633145b80611a1757506002546001600160a01b031633145b611a335760405162461bcd60e51b8152600401610630906141ab565b60005460ff161515600114611a5a5760405162461bcd60e51b8152600401610630906141f3565b6003546001600160a01b031633148015611a7657506001831515145b15611f4a57604051636eb1769f60e11b815281906001600160a01b037f0000000000000000000000000000000000000000000000000000000000000000169063dd62ed3e90611acb9033903090600401614143565b602060405180830381865afa158015611ae8573d6000803e3d6000fd5b505050506040513d601f19601f82011682018060405250810190611b0c919061415d565b10158015611ba95750604051636eb1769f60e11b815281906001600160a01b037f0000000000000000000000000000000000000000000000000000000000000000169063dd62ed3e90611b659033908790600401614143565b602060405180830381865afa158015611b82573d6000803e3d6000fd5b505050506040513d601f19601f82011682018060405250810190611ba6919061415d565b10155b8015611c645750604051636eb1769f60e11b81527f0000000000000000000000000000000000000000000000000000000000000000906001600160a01b037f0000000000000000000000000000000000000000000000000000000000000000169063dd62ed3e90611c209033903090600401614143565b602060405180830381865afa158015611c3d573d6000803e3d6000fd5b505050506040513d601f19601f82011682018060405250810190611c61919061415d565b10155b8015611d1f5750604051636eb1769f60e11b81527f0000000000000000000000000000000000000000000000000000000000000000906001600160a01b037f0000000000000000000000000000000000000000000000000000000000000000169063dd62ed3e90611cdb9033908790600401614143565b602060405180830381865afa158015611cf8573d6000803e3d6000fd5b505050506040513d601f19601f82011682018060405250810190611d1c919061415d565b10155b15611d74576040516323b872dd60e01b81526001600160a01b037f000000000000000000000000000000000000000000000000000000000000000016906323b872dd90610b56908590339086906004016143d2565b60405163b23c2ed760e01b81526001600160a01b037f0000000000000000000000000000000000000000000000000000000000000000169063b23c2ed790611dc4908590309086906004016143d2565b600060405180830381600087803b158015611dde57600080fd5b505af1158015611df2573d6000803e3d6000fd5b505060405163b23c2ed760e01b81526001600160a01b037f000000000000000000000000000000000000000000000000000000000000000016925063b23c2ed79150611e46903390309086906004016143d2565b600060405180830381600087803b158015611e6057600080fd5b505af1158015611e74573d6000803e3d6000fd5b505060405163b23c2ed760e01b81526001600160a01b037f000000000000000000000000000000000000000000000000000000000000000016925063b23c2ed79150611ec8908590339086906004016143d2565b600060405180830381600087803b158015611ee257600080fd5b505af1158015611ef6573d6000803e3d6000fd5b50506040516323b872dd60e01b81526001600160a01b037f00000000000000000000000000000000000000000000000000000000000000001692506323b872dd9150610b56908590339086906004016143d2565b6003546001600160a01b031633148015611f62575082155b1561183857604051636eb1769f60e11b815281906001600160a01b037f0000000000000000000000000000000000000000000000000000000000000000169063dd62ed3e90611fb79033903090600401614143565b602060405180830381865afa158015611fd4573d6000803e3d6000fd5b505050506040513d601f19601f82011682018060405250810190611ff8919061415d565b101580156120955750604051636eb1769f60e11b815281906001600160a01b037f0000000000000000000000000000000000000000000000000000000000000000169063dd62ed3e906120519033908790600401614143565b602060405180830381865afa15801561206e573d6000803e3d6000fd5b505050506040513d601f19601f82011682018060405250810190612092919061415d565b10155b80156121505750604051636eb1769f60e11b81527f0000000000000000000000000000000000000000000000000000000000000000906001600160a01b037f0000000000000000000000000000000000000000000000000000000000000000169063dd62ed3e9061210c9033903090600401614143565b602060405180830381865afa158015612129573d6000803e3d6000fd5b505050506040513d601f19601f8201168201806040525081019061214d919061415d565b10155b801561220b5750604051636eb1769f60e11b81527f0000000000000000000000000000000000000000000000000000000000000000906001600160a01b037f0000000000000000000000000000000000000000000000000000000000000000169063dd62ed3e906121c79033908790600401614143565b602060405180830381865afa1580156121e4573d6000803e3d6000fd5b505050506040513d601f19601f82011682018060405250810190612208919061415d565b10155b15612260576040516323b872dd60e01b81526001600160a01b037f000000000000000000000000000000000000000000000000000000000000000016906323b872dd90610b56903390869086906004016143d2565b60405163b23c2ed760e01b81526001600160a01b037f0000000000000000000000000000000000000000000000000000000000000000169063b23c2ed7906122b0903390869086906004016143d2565b600060405180830381600087803b1580156122ca57600080fd5b505af11580156122de573d6000803e3d6000fd5b50506040516323b872dd60e01b81526001600160a01b037f00000000000000000000000000000000000000000000000000000000000000001692506323b872dd9150610b56903390869086906004016143d2565b6000805460ff16151560011461235a5760405162461bcd60e51b8152600401610630906141f3565b6040516370a0823160e01b81526001600160a01b0383811660048301527f000000000000000000000000000000000000000000000000000000000000000016906370a08231906024016103ed565b6001546001600160a01b03163314806123cb57506003546001600160a01b031633145b806123e5575060005461010090046001600160a01b031633145b806123fa57506002546001600160a01b031633145b6124165760405162461bcd60e51b8152600401610630906141ab565b60005460ff16151560011461243d5760405162461bcd60e51b8152600401610630906141f3565b60007f00000000000000000000000000000000000000000000000000000000000000006001600160a01b031663313ce5676040518163ffffffff1660e01b8152600401602060405180830381865afa15801561249d573d6000803e3d6000fd5b505050506040513d601f19601f820116820180604052508101906124c19190614221565b6124cc90600a61433e565b6124d6908361434d565b9050336125255760405162461bcd60e51b815260206004820152601f60248201527f496e74657266616365202d204465582041646472657373206e6f7420736574006044820152606401610630565b7f000000000000000000000000000000000000000000000000000000000000000081106107e55760405162461bcd60e51b81526004016106309061442c565b336001600160a01b037f000000000000000000000000000000000000000000000000000000000000000016146125ac5760405162461bcd60e51b815260040161063090614176565b60005460ff16156125cf5760405162461bcd60e51b815260040161063090614477565b336000908152600460205260409020600501546001600160a01b039081169082160361264b5760405162461bcd60e51b815260206004820152602560248201527f496e74657266616365202d205265676973746572656420566f7472655820416960448201526407264726f760dc1b6064820152608401610630565b6001600160a01b0381166126715760405162461bcd60e51b8152600401610630906144a7565b600280546001600160a01b039092166001600160a01b031992831681179091553360009081526004602052604090206005018054909216179055565b336001600160a01b037f000000000000000000000000000000000000000000000000000000000000000016146126f55760405162461bcd60e51b815260040161063090614176565b60005460ff16156127185760405162461bcd60e51b815260040161063090614477565b336000908152600460205260409020600301546001600160a01b03908116908216036127905760405162461bcd60e51b815260206004820152602160248201527f496e74657266616365202d205265676973746572656420566f747265582044656044820152600b60fb1b6064820152608401610630565b6001600160a01b0381166127b65760405162461bcd60e51b8152600401610630906144a7565b600180546001600160a01b039092166001600160a01b031992831681179091553360009081526004602052604090206003018054909216179055565b336001600160a01b037f0000000000000000000000000000000000000000000000000000000000000000161461283a5760405162461bcd60e51b815260040161063090614176565b60005460ff161561285d5760405162461bcd60e51b815260040161063090614477565b336000908152600460205260409020600201546001600160a01b03908116908216036128d95760405162461bcd60e51b815260206004820152602560248201527f496e74657266616365202d205265676973746572656420566f74726558205374604482015264616b696e6760d81b6064820152608401610630565b6001600160a01b0381166128ff5760405162461bcd60e51b8152600401610630906144d9565b600380546001600160a01b039092166001600160a01b031992831681179091553360009081526004602052604090206002018054909216179055565b6001546001600160a01b031633148061295e57506003546001600160a01b031633145b80612978575060005461010090046001600160a01b031633145b8061298d57506002546001600160a01b031633145b6129a95760405162461bcd60e51b8152600401610630906141ab565b60005460ff1615156001146129d05760405162461bcd60e51b8152600401610630906141f3565b60005461010090046001600160a01b03163314612a285760405162461bcd60e51b8152602060048201526016602482015275092dce8cae4ccc2c6ca405a409cdee840acdee8e4cab60531b6044820152606401610630565b60007f00000000000000000000000000000000000000000000000000000000000000006001600160a01b031663313ce5676040518163ffffffff1660e01b8152600401602060405180830381865afa158015612a88573d6000803e3d6000fd5b505050506040513d601f19601f82011682018060405250810190612aac9190614221565b612ab790600a61433e565b612ac1908361434d565b9050807f00000000000000000000000000000000000000000000000000000000000000006001600160a01b031663dd62ed3e33306040518363ffffffff1660e01b8152600401612b12929190614143565b602060405180830381865afa158015612b2f573d6000803e3d6000fd5b505050506040513d601f19601f82011682018060405250810190612b53919061415d565b10158015612c105750604051636eb1769f60e11b81527f0000000000000000000000000000000000000000000000000000000000000000906001600160a01b037f0000000000000000000000000000000000000000000000000000000000000000169063dd62ed3e90612bcc9033903090600401614143565b602060405180830381865afa158015612be9573d6000803e3d6000fd5b505050506040513d601f19601f82011682018060405250810190612c0d919061415d565b10155b15612c65576040516323b872dd60e01b81526001600160a01b037f000000000000000000000000000000000000000000000000000000000000000016906323b872dd90610b56908690339086906004016143d2565b60405163b23c2ed760e01b81526001600160a01b037f0000000000000000000000000000000000000000000000000000000000000000169063b23c2ed790612cb5908690309086906004016143d2565b600060405180830381600087803b158015612ccf57600080fd5b505af1158015612ce3573d6000803e3d6000fd5b50506040516323b872dd60e01b81526001600160a01b037f00000000000000000000000000000000000000000000000000000000000000001692506323b872dd9150612d37908690339086906004016143d2565b6020604051808303816000875af1158015612d56573d6000803e3d6000fd5b505050506040513d601f19601f82011682018060405250810190612d7a91906143f6565b507f0902475a854b82199b4f5d6b81327ec4c4ec077ce0356a106ddc2748c5285ed33382604051610dea929190614413565b336001600160a01b037f00000000000000000000000000000000000000000000000000000000000000001614612df45760405162461bcd60e51b815260040161063090614176565b6000805460ff1615159003612e12576000805460ff19166001179055565b60005460ff161515600103612e2c576000805460ff191690555b565b6001546001600160a01b0316331480612e5157506003546001600160a01b031633145b80612e6b575060005461010090046001600160a01b031633145b80612e8057506002546001600160a01b031633145b612e9c5760405162461bcd60e51b8152600401610630906141ab565b60005460ff161515600114612ec35760405162461bcd60e51b8152600401610630906141f3565b60007f00000000000000000000000000000000000000000000000000000000000000006001600160a01b031663313ce5676040518163ffffffff1660e01b8152600401602060405180830381865afa158015612f23573d6000803e3d6000fd5b505050506040513d601f19601f82011682018060405250810190612f479190614221565b612f5290600a61433e565b612f5c908361434d565b905033612fb75760405162461bcd60e51b815260206004820152602360248201527f496e74657266616365202d205374616b696e672041646472657373206e6f74206044820152621cd95d60ea1b6064820152608401610630565b7f000000000000000000000000000000000000000000000000000000000000000082106107e55760405162461bcd60e51b81526004016106309061442c565b336001600160a01b037f0000000000000000000000000000000000000000000000000000000000000000161461303e5760405162461bcd60e51b815260040161063090614176565b60007f00000000000000000000000000000000000000000000000000000000000000006001600160a01b031663313ce5676040518163ffffffff1660e01b8152600401602060405180830381865afa15801561309e573d6000803e3d6000fd5b505050506040513d601f19601f820116820180604052508101906130c29190614221565b6130cd90600a61433e565b6130d7908361434d565b33600090815260046020819052604090912001549091506001600160a01b039081169084160361340e57604051636eb1769f60e11b81527f0000000000000000000000000000000000000000000000000000000000000000906001600160a01b037f0000000000000000000000000000000000000000000000000000000000000000169063dd62ed3e906131719033903090600401614143565b602060405180830381865afa15801561318e573d6000803e3d6000fd5b505050506040513d601f19601f820116820180604052508101906131b2919061415d565b1015801561324f5750604051636eb1769f60e11b815281906001600160a01b037f0000000000000000000000000000000000000000000000000000000000000000169063dd62ed3e9061320b9033903090600401614143565b602060405180830381865afa158015613228573d6000803e3d6000fd5b505050506040513d601f19601f8201168201806040525081019061324c919061415d565b10155b156132af576000546040516323b872dd60e01b81526001600160a01b037f0000000000000000000000000000000000000000000000000000000000000000818116936323b872dd93610b56936101009092049091169086906004016143d2565b60405163b23c2ed760e01b81526001600160a01b037f0000000000000000000000000000000000000000000000000000000000000000169063b23c2ed7906132ff903390879086906004016143d2565b600060405180830381600087803b15801561331957600080fd5b505af115801561332d573d6000803e3d6000fd5b505060405163b23c2ed760e01b81526001600160a01b037f000000000000000000000000000000000000000000000000000000000000000016925063b23c2ed79150613381903390309086906004016143d2565b600060405180830381600087803b15801561339b57600080fd5b505af11580156133af573d6000803e3d6000fd5b50506000546040516323b872dd60e01b81527f00000000000000000000000000000000000000000000000000000000000000006001600160a01b0381811695506323b872dd9450610b56939192610100909204169086906004016143d2565b336000908152600460205260409020600301546001600160a01b039081169084160361373757604051636eb1769f60e11b81527f0000000000000000000000000000000000000000000000000000000000000000906001600160a01b037f0000000000000000000000000000000000000000000000000000000000000000169063dd62ed3e906134a49033903090600401614143565b602060405180830381865afa1580156134c1573d6000803e3d6000fd5b505050506040513d601f19601f820116820180604052508101906134e5919061415d565b101580156135825750604051636eb1769f60e11b815281906001600160a01b037f0000000000000000000000000000000000000000000000000000000000000000169063dd62ed3e9061353e9033903090600401614143565b602060405180830381865afa15801561355b573d6000803e3d6000fd5b505050506040513d601f19601f8201168201806040525081019061357f919061415d565b10155b156135dd576001546040516323b872dd60e01b81526001600160a01b037f0000000000000000000000000000000000000000000000000000000000000000818116936323b872dd93610b5693919091169086906004016143d2565b60405163b23c2ed760e01b81526001600160a01b037f0000000000000000000000000000000000000000000000000000000000000000169063b23c2ed79061362d903390879086906004016143d2565b600060405180830381600087803b15801561364757600080fd5b505af115801561365b573d6000803e3d6000fd5b505060405163b23c2ed760e01b81526001600160a01b037f000000000000000000000000000000000000000000000000000000000000000016925063b23c2ed791506136af903390309086906004016143d2565b600060405180830381600087803b1580156136c957600080fd5b505af11580156136dd573d6000803e3d6000fd5b50506001546040516323b872dd60e01b81526001600160a01b037f000000000000000000000000000000000000000000000000000000000000000081811695506323b872dd9450610b5693909291169086906004016143d2565b7f00000000000000000000000000000000000000000000000000000000000000006001600160a01b0316836001600160a01b031603613b7857623d090082106137cd5760405162461bcd60e51b815260206004820152602260248201527f496e74657266616365202d205472616e73666572206c696d6974205265616368604482015261195960f21b6064820152608401610630565b336001600160a01b037f000000000000000000000000000000000000000000000000000000000000000016146138455760405162461bcd60e51b815260206004820152601a60248201527f496e74657266616365202d204e6f7420417574686f72697a65640000000000006044820152606401610630565b604051636eb1769f60e11b815281906001600160a01b037f0000000000000000000000000000000000000000000000000000000000000000169063dd62ed3e906138959033903090600401614143565b602060405180830381865afa1580156138b2573d6000803e3d6000fd5b505050506040513d601f19601f820116820180604052508101906138d6919061415d565b101580156139935750604051636eb1769f60e11b81527f0000000000000000000000000000000000000000000000000000000000000000906001600160a01b037f0000000000000000000000000000000000000000000000000000000000000000169063dd62ed3e9061394f9033903090600401614143565b602060405180830381865afa15801561396c573d6000803e3d6000fd5b505050506040513d601f19601f82011682018060405250810190613990919061415d565b10155b15613a07576040516323b872dd60e01b81527f00000000000000000000000000000000000000000000000000000000000000006001600160a01b038116916323b872dd91610b56917f00000000000000000000000000000000000000000000000000000000000000009086906004016143d2565b60405163b23c2ed760e01b81527f00000000000000000000000000000000000000000000000000000000000000006001600160a01b0381169163b23c2ed791613a5691309086906004016143d2565b600060405180830381600087803b158015613a7057600080fd5b505af1158015613a84573d6000803e3d6000fd5b505060405163b23c2ed760e01b81527f00000000000000000000000000000000000000000000000000000000000000006001600160a01b038116935063b23c2ed79250613af7917f00000000000000000000000000000000000000000000000000000000000000009086906004016143d2565b600060405180830381600087803b158015613b1157600080fd5b505af1158015613b25573d6000803e3d6000fd5b50506040516323b872dd60e01b81527f00000000000000000000000000000000000000000000000000000000000000006001600160a01b03811693506323b872dd9250610d7591339086906004016143d2565b7f00000000000000000000000000000000000000000000000000000000000000006001600160a01b0316836001600160a01b0316141580613bd75750336000908152600460205260409020600301546001600160a01b03848116911614155b80613c01575033600090815260046020819052604090912001546001600160a01b03848116911614155b1561183857600080fd5b336001600160a01b037f00000000000000000000000000000000000000000000000000000000000000001614613c535760405162461bcd60e51b815260040161063090614176565b60007f00000000000000000000000000000000000000000000000000000000000000006001600160a01b031663313ce5676040518163ffffffff1660e01b8152600401602060405180830381865afa158015613cb3573d6000803e3d6000fd5b505050506040513d601f19601f82011682018060405250810190613cd79190614221565b613ce290600a61433e565b613cf29063ffffffff841661434d565b905030613d115760405162461bcd60e51b815260040161063090614364565b7f00000000000000000000000000000000000000000000000000000000000000008110613d505760405162461bcd60e51b81526004016106309061439b565b60405163b23c2ed760e01b81527f00000000000000000000000000000000000000000000000000000000000000006001600160a01b0381169163b23c2ed79161083591309086906004016143d2565b60007f00000000000000000000000000000000000000000000000000000000000000006001600160a01b03166318160ddd6040518163ffffffff1660e01b8152600401602060405180830381865afa158015613dff573d6000803e3d6000fd5b505050506040513d601f19601f82011682018060405250810190613e23919061415d565b905090565b336001600160a01b037f00000000000000000000000000000000000000000000000000000000000000001614613e705760405162461bcd60e51b815260040161063090614176565b60005460ff1615613e935760405162461bcd60e51b815260040161063090614477565b33600090815260046020819052604090912001546001600160a01b0390811690821603613f025760405162461bcd60e51b815260206004820152601d60248201527f496e74657266616365202d205265676973746572656420566f747265580000006044820152606401610630565b6001600160a01b038116613f285760405162461bcd60e51b8152600401610630906144d9565b60008054610100600160a81b0319166101006001600160a01b03939093169283021781553381526004602081905260409091200180546001600160a01b0319169091179055565b6001546001600160a01b0316331480613f9257506003546001600160a01b031633145b80613fac575060005461010090046001600160a01b031633145b80613fc157506002546001600160a01b031633145b613fdd5760405162461bcd60e51b8152600401610630906141ab565b60005460ff1615156001146140045760405162461bcd60e51b8152600401610630906141f3565b6040516340c10f1960e01b81526001600160a01b037f000000000000000000000000000000000000000000000000000000000000000016906340c10f19906108359085908590600401614413565b80356001600160a01b03811681146105e157600080fd5b60006020828403121561407b57600080fd5b61408482614052565b9392505050565b60006020828403121561409d57600080fd5b5035919050565b600080604083850312156140b757600080fd5b6140c083614052565b946020939093013593505050565b80151581146140dc57600080fd5b50565b6000806000606084860312156140f457600080fd5b83356140ff816140ce565b925061410d60208501614052565b9150604084013590509250925092565b60006020828403121561412f57600080fd5b813563ffffffff8116811461408457600080fd5b6001600160a01b0392831681529116602082015260400190565b60006020828403121561416f57600080fd5b5051919050565b6020808252818101527f496e74657266616365202d2043616c6c6572206973206e6f74204f776e657221604082015260600190565b60208082526028908201527f496e74657266616365202d2043616c6c6572206973206e6f7420616e20417574604082015267686f72697a65642160c01b606082015260800190565b602080825260149082015273496e74657266616365206e6f742041637469766560601b604082015260600190565b60006020828403121561423357600080fd5b815160ff8116811461408457600080fd5b634e487b7160e01b600052601160045260246000fd5b600181815b8085111561429557816000190482111561427b5761427b614244565b8085161561428857918102915b93841c939080029061425f565b509250929050565b6000826142ac5750600161042e565b816142b95750600061042e565b81600181146142cf57600281146142d9576142f5565b600191505061042e565b60ff8411156142ea576142ea614244565b50506001821b61042e565b5060208310610133831016604e8410600b8410161715614318575081810a61042e565b614322838361425a565b806000190482111561433657614336614244565b029392505050565b600061408460ff84168361429d565b808202811582820484141761042e5761042e614244565b6020808252601b908201527f496e74657266616365202d20496e76616c696420616464726573730000000000604082015260600190565b6020808252601f908201527f43616e206e6f7420617070726f7665206d6f7265207468616e206c696d697400604082015260600190565b6001600160a01b039384168152919092166020820152604081019190915260600190565b60006020828403121561440857600080fd5b8151614084816140ce565b6001600160a01b03929092168252602082015260400190565b6020808252602b908201527f496e74657266616365202d2043616e206e6f7420617070726f7665206d6f726560408201526a081d1a185b881b1a5b5a5d60aa1b606082015260800190565b602080825260169082015275496e74657266616365207374696c6c2041637469766560501b604082015260600190565b602080825260189082015277496e76616c696420636f6e7472616374206164647265737360401b604082015260600190565b60208082526024908201527f496e74657266616365202d20496e76616c696420636f6e7472616374206164646040820152637265737360e01b60608201526080019056fea2646970667358221220790d8ece508d9981e2833cd6a022b26c8f8710b043226331d9959dc2b59b378c64736f6c63430008170033",
  "devdoc": {
    "kind": "dev",
    "methods": {},
    "version": 1
  },
  "userdoc": {
    "kind": "user",
    "methods": {},
    "version": 1
  },
  "storageLayout": {
    "storage": [
      {
        "astId": 7029,
        "contract": "contracts/VotreXTxInterface.sol:VotreXTXInterface",
        "label": "interfaceActivated",
        "offset": 0,
        "slot": "0",
        "type": "t_bool"
      },
      {
        "astId": 7031,
        "contract": "contracts/VotreXTxInterface.sol:VotreXTXInterface",
        "label": "VotreXContract",
        "offset": 1,
        "slot": "0",
        "type": "t_address"
      },
      {
        "astId": 7033,
        "contract": "contracts/VotreXTxInterface.sol:VotreXTXInterface",
        "label": "dexContract",
        "offset": 0,
        "slot": "1",
        "type": "t_address"
      },
      {
        "astId": 7035,
        "contract": "contracts/VotreXTxInterface.sol:VotreXTXInterface",
        "label": "airdropContract",
        "offset": 0,
        "slot": "2",
        "type": "t_address"
      },
      {
        "astId": 7037,
        "contract": "contracts/VotreXTxInterface.sol:VotreXTXInterface",
        "label": "stakingContract",
        "offset": 0,
        "slot": "3",
        "type": "t_address"
      },
      {
        "astId": 7051,
        "contract": "contracts/VotreXTxInterface.sol:VotreXTXInterface",
        "label": "ContractStorage",
        "offset": 0,
        "slot": "4",
        "type": "t_mapping(t_address,t_struct(IContract)7064_storage)"
      }
    ],
    "types": {
      "t_address": {
        "encoding": "inplace",
        "label": "address",
        "numberOfBytes": "20"
      },
      "t_bool": {
        "encoding": "inplace",
        "label": "bool",
        "numberOfBytes": "1"
      },
      "t_mapping(t_address,t_struct(IContract)7064_storage)": {
        "encoding": "mapping",
        "key": "t_address",
        "label": "mapping(address => struct VotreXTXInterface.IContract)",
        "numberOfBytes": "32",
        "value": "t_struct(IContract)7064_storage"
      },
      "t_struct(IContract)7064_storage": {
        "encoding": "inplace",
        "label": "struct VotreXTXInterface.IContract",
        "members": [
          {
            "astId": 7053,
            "contract": "contracts/VotreXTxInterface.sol:VotreXTXInterface",
            "label": "Authorized",
            "offset": 0,
            "slot": "0",
            "type": "t_address"
          },
          {
            "astId": 7055,
            "contract": "contracts/VotreXTxInterface.sol:VotreXTXInterface",
            "label": "tokenContract",
            "offset": 0,
            "slot": "1",
            "type": "t_address"
          },
          {
            "astId": 7057,
            "contract": "contracts/VotreXTxInterface.sol:VotreXTXInterface",
            "label": "stakingContract",
            "offset": 0,
            "slot": "2",
            "type": "t_address"
          },
          {
            "astId": 7059,
            "contract": "contracts/VotreXTxInterface.sol:VotreXTXInterface",
            "label": "dexContract",
            "offset": 0,
            "slot": "3",
            "type": "t_address"
          },
          {
            "astId": 7061,
            "contract": "contracts/VotreXTxInterface.sol:VotreXTXInterface",
            "label": "VotreXContract",
            "offset": 0,
            "slot": "4",
            "type": "t_address"
          },
          {
            "astId": 7063,
            "contract": "contracts/VotreXTxInterface.sol:VotreXTXInterface",
            "label": "airdropContract",
            "offset": 0,
            "slot": "5",
            "type": "t_address"
          }
        ],
        "numberOfBytes": "192"
      }
    }
  }
}