{
  "address": "0x05bfd6F6AbB5BaBB18df553614e0A7b9934Dd0aa",
  "abi": [
    {
      "inputs": [
        {
          "internalType": "address",
          "name": "_intefaceAddress",
          "type": "address"
        }
      ],
      "stateMutability": "nonpayable",
      "type": "constructor"
    },
    {
      "anonymous": false,
      "inputs": [
        {
          "indexed": true,
          "internalType": "address",
          "name": "Requester",
          "type": "address"
        },
        {
          "indexed": false,
          "internalType": "uint256",
          "name": "FLRSent",
          "type": "uint256"
        },
        {
          "indexed": false,
          "internalType": "uint256",
          "name": "VXTAmount",
          "type": "uint256"
        }
      ],
      "name": "BuyVXTEvent",
      "type": "event"
    },
    {
      "inputs": [],
      "name": "BuyVXT",
      "outputs": [],
      "stateMutability": "payable",
      "type": "function"
    },
    {
      "inputs": [],
      "name": "CheckTokenBalance",
      "outputs": [
        {
          "internalType": "uint256",
          "name": "",
          "type": "uint256"
        }
      ],
      "stateMutability": "view",
      "type": "function"
    },
    {
      "inputs": [],
      "name": "ContractOwner",
      "outputs": [
        {
          "internalType": "address",
          "name": "",
          "type": "address"
        }
      ],
      "stateMutability": "view",
      "type": "function"
    },
    {
      "inputs": [],
      "name": "GetVXTtoFLRPrice",
      "outputs": [
        {
          "internalType": "uint256",
          "name": "",
          "type": "uint256"
        }
      ],
      "stateMutability": "view",
      "type": "function"
    },
    {
      "inputs": [],
      "name": "VXPriceRequested",
      "outputs": [
        {
          "internalType": "uint256",
          "name": "",
          "type": "uint256"
        }
      ],
      "stateMutability": "view",
      "type": "function"
    },
    {
      "inputs": [
        {
          "internalType": "uint256",
          "name": "_flrPrice",
          "type": "uint256"
        }
      ],
      "name": "addVXTPricingFLR",
      "outputs": [],
      "stateMutability": "nonpayable",
      "type": "function"
    },
    {
      "inputs": [
        {
          "internalType": "address",
          "name": "",
          "type": "address"
        }
      ],
      "name": "allowances",
      "outputs": [
        {
          "internalType": "uint256",
          "name": "",
          "type": "uint256"
        }
      ],
      "stateMutability": "view",
      "type": "function"
    },
    {
      "inputs": [
        {
          "internalType": "uint256",
          "name": "amount",
          "type": "uint256"
        }
      ],
      "name": "approveDeX",
      "outputs": [],
      "stateMutability": "nonpayable",
      "type": "function"
    },
    {
      "inputs": [
        {
          "internalType": "uint256",
          "name": "ETHAmount",
          "type": "uint256"
        }
      ],
      "name": "calculateReqPricesFLR",
      "outputs": [
        {
          "internalType": "uint256",
          "name": "FLRAmount",
          "type": "uint256"
        },
        {
          "internalType": "uint256",
          "name": "VXTAmount",
          "type": "uint256"
        }
      ],
      "stateMutability": "view",
      "type": "function"
    },
    {
      "inputs": [
        {
          "internalType": "uint256",
          "name": "_FLRAmount",
          "type": "uint256"
        }
      ],
      "name": "checkFLR",
      "outputs": [
        {
          "internalType": "uint256",
          "name": "",
          "type": "uint256"
        }
      ],
      "stateMutability": "pure",
      "type": "function"
    },
    {
      "inputs": [
        {
          "internalType": "uint256",
          "name": "_VXTAmount",
          "type": "uint256"
        }
      ],
      "name": "convertToVXT",
      "outputs": [
        {
          "internalType": "uint256",
          "name": "",
          "type": "uint256"
        }
      ],
      "stateMutability": "pure",
      "type": "function"
    },
    {
      "inputs": [],
      "name": "vxtInterface",
      "outputs": [
        {
          "internalType": "contract VotreXTXInterface",
          "name": "",
          "type": "address"
        }
      ],
      "stateMutability": "view",
      "type": "function"
    },
    {
      "inputs": [],
      "name": "withdrawBalance",
      "outputs": [],
      "stateMutability": "nonpayable",
      "type": "function"
    },
    {
      "inputs": [],
      "name": "withdrawToken",
      "outputs": [],
      "stateMutability": "nonpayable",
      "type": "function"
    },
    {
      "stateMutability": "payable",
      "type": "receive"
    }
  ],
  "transactionHash": "0x6da270102dae9976923f3270a6a2b5280209d9217a8ef965138b2c7dacd4711f",
  "args": [
    "0x8d644bd12D1295f25c5B045aE5e29903F6556290"
  ],
  "numDeployments": 2,
  "solcInputHash": "f5b9ab12b869c94ceb6eaa4d5f65adf4",
  "bytecode": "0x60c060405234801561001057600080fd5b50604051610b78380380610b7883398101604081905261002f91610044565b6001600160a01b03166080523360a052610074565b60006020828403121561005657600080fd5b81516001600160a01b038116811461006d57600080fd5b9392505050565b60805160a051610a9a6100de600039600081816101df01528181610476015281816105a6015281816106300152818161068801526107e401526000818160df015281816103b3015281816104cb0152818161071e01528181610839015261090a0152610a9a6000f3fe6080604052600436106100c15760003560e01c80635fd8c7101161006f5780635fd8c710146102015780636d779b04146102165780637707834a14610236578063a43260ca1461024b578063aec4d1cb1461026b578063c39e60ef1461028b578063ca628c78146102a157600080fd5b80630d4137ad146100cd5780630e6ca2661461011e5780631a80c09a146101285780631c5fc9911461014b578063284ceef71461016b5780632b603c71146101a05780635a63fbc9146101cd57600080fd5b366100c857005b600080fd5b3480156100d957600080fd5b506101017f000000000000000000000000000000000000000000000000000000000000000081565b6040516001600160a01b0390911681526020015b60405180910390f35b6101266102b6565b005b34801561013457600080fd5b5061013d610469565b604051908152602001610115565b34801561015757600080fd5b5061013d610166366004610992565b610544565b34801561017757600080fd5b5061018b610186366004610992565b610560565b60408051928352602083019190915201610115565b3480156101ac57600080fd5b5061013d6101bb3660046109ab565b60026020526000908152604090205481565b3480156101d957600080fd5b506101017f000000000000000000000000000000000000000000000000000000000000000081565b34801561020d57600080fd5b5061012661059b565b34801561022257600080fd5b50610126610231366004610992565b61067d565b34801561024257600080fd5b5060015461013d565b34801561025757600080fd5b50610126610266366004610992565b6107a9565b34801561027757600080fd5b5061013d610286366004610992565b6107c4565b34801561029757600080fd5b5061013d60005481565b3480156102ad57600080fd5b506101266107d9565b60006102ca34670de0b6b3a7640000610971565b905060006102e36001548361098690919063ffffffff16565b6001549091506102f4906002610986565b34116103515760405162461bcd60e51b815260206004820152602160248201527f4e6f742073656e64696e67206174206d696e696d756d207265716972656d656e6044820152601d60fa1b60648201526084015b60405180910390fd5b600034116103975760405162461bcd60e51b8152602060048201526013602482015272045746865722076616c75652063616e2774203606c1b6044820152606401610348565b604051630624515160e31b8152336004820152602481018290527f00000000000000000000000000000000000000000000000000000000000000006001600160a01b0316906331228a8890604401600060405180830381600087803b1580156103ff57600080fd5b505af1158015610413573d6000803e3d6000fd5b50503360008181526002602090815260409182902086905581513481529081018690529193507f98b2415025a47ceaf14fb03663a7aa128fd3516166ac337255b49be5e49c84d092500160405180910390a25050565b6000336001600160a01b037f000000000000000000000000000000000000000000000000000000000000000016146104b35760405162461bcd60e51b8152600401610348906109d4565b604051632fa8a91360e11b81523060048201526000907f00000000000000000000000000000000000000000000000000000000000000006001600160a01b031690635f51522690602401602060405180830381865afa15801561051a573d6000803e3d6000fd5b505050506040513d601f19601f8201168201806040525081019061053e9190610a04565b91505090565b60008061055983670de0b6b3a7640000610971565b9392505050565b6000808061057684670de0b6b3a7640000610971565b9050600061058f6001548361098690919063ffffffff16565b91959194509092505050565b336001600160a01b037f000000000000000000000000000000000000000000000000000000000000000016146105e35760405162461bcd60e51b8152600401610348906109d4565b476000036106215760405162461bcd60e51b815260206004820152600b60248201526a139bc8119314881319599d60aa1b6044820152606401610348565b60405147906001600160a01b037f0000000000000000000000000000000000000000000000000000000000000000169082156108fc029083906000818181858888f19350505050158015610679573d6000803e3d6000fd5b5050565b336001600160a01b037f000000000000000000000000000000000000000000000000000000000000000016146106c55760405162461bcd60e51b8152600401610348906109d4565b336107085760405162461bcd60e51b8152602060048201526013602482015272111956081059191c995cdcc81b9bdd081cd95d606a1b6044820152606401610348565b604051631b5de6c160e21b8152600481018290527f00000000000000000000000000000000000000000000000000000000000000006001600160a01b031690636d779b0490602401600060405180830381600087803b15801561076a57600080fd5b505af115801561077e573d6000803e3d6000fd5b5050505080670de0b6b3a76400006107969190610a1d565b3060009081526002602052604090205550565b60006107bd82670de0b6b3a7640000610a1d565b6001555050565b60008061055983670de0b6b3a7640000610a1d565b336001600160a01b037f000000000000000000000000000000000000000000000000000000000000000016146108215760405162461bcd60e51b8152600401610348906109d4565b604051632fa8a91360e11b81523060048201526000907f00000000000000000000000000000000000000000000000000000000000000006001600160a01b031690635f51522690602401602060405180830381865afa158015610888573d6000803e3d6000fd5b505050506040513d601f19601f820116820180604052508101906108ac9190610a04565b9050600081116108ee5760405162461bcd60e51b815260206004820152600d60248201526c139bc8151bdad95b881b19599d609a1b6044820152606401610348565b604051630624515160e31b8152336004820152602481018290527f00000000000000000000000000000000000000000000000000000000000000006001600160a01b0316906331228a8890604401600060405180830381600087803b15801561095657600080fd5b505af115801561096a573d6000803e3d6000fd5b5050505050565b600061097d8284610a1d565b90505b92915050565b600061097d8284610a42565b6000602082840312156109a457600080fd5b5035919050565b6000602082840312156109bd57600080fd5b81356001600160a01b038116811461055957600080fd5b60208082526016908201527521b0b63632b91034b9903737ba10309039ba30b5b2b960511b604082015260600190565b600060208284031215610a1657600080fd5b5051919050565b808202811582820484141761098057634e487b7160e01b600052601160045260246000fd5b600082610a5f57634e487b7160e01b600052601260045260246000fd5b50049056fea2646970667358221220a7b169c458e6bf2a7bf021097d7fe852cd81fc593cab1dbafc1bf6b81b698ad664736f6c63430008170033",
  "devdoc": {
    "kind": "dev",
    "methods": {},
    "version": 1
  },
  "userdoc": {
    "kind": "user",
    "methods": {},
    "version": 1
  },
  "storageLayout": {
    "storage": [
      {
        "astId": 4980,
        "contract": "contracts/VotreXDex.sol:VotreXDex",
        "label": "VXPriceRequested",
        "offset": 0,
        "slot": "0",
        "type": "t_uint256"
      },
      {
        "astId": 4982,
        "contract": "contracts/VotreXDex.sol:VotreXDex",
        "label": "FLRPricePoint",
        "offset": 0,
        "slot": "1",
        "type": "t_uint256"
      },
      {
        "astId": 4986,
        "contract": "contracts/VotreXDex.sol:VotreXDex",
        "label": "allowances",
        "offset": 0,
        "slot": "2",
        "type": "t_mapping(t_address,t_uint256)"
      }
    ],
    "types": {
      "t_address": {
        "encoding": "inplace",
        "label": "address",
        "numberOfBytes": "20"
      },
      "t_mapping(t_address,t_uint256)": {
        "encoding": "mapping",
        "key": "t_address",
        "label": "mapping(address => uint256)",
        "numberOfBytes": "32",
        "value": "t_uint256"
      },
      "t_uint256": {
        "encoding": "inplace",
        "label": "uint256",
        "numberOfBytes": "32"
      }
    }
  }
}