{
  "address": "0x0128B2D97B979F7e137Fb9eb73621EAc64eD4E74",
  "abi": [
    {
      "inputs": [
        {
          "internalType": "uint256",
          "name": "_initialMintedToken",
          "type": "uint256"
        },
        {
          "internalType": "uint256",
          "name": "_MaxSupplies",
          "type": "uint256"
        }
      ],
      "stateMutability": "nonpayable",
      "type": "constructor"
    },
    {
      "inputs": [
        {
          "internalType": "address",
          "name": "spender",
          "type": "address"
        },
        {
          "internalType": "uint256",
          "name": "allowance",
          "type": "uint256"
        },
        {
          "internalType": "uint256",
          "name": "needed",
          "type": "uint256"
        }
      ],
      "name": "ERC20InsufficientAllowance",
      "type": "error"
    },
    {
      "inputs": [
        {
          "internalType": "address",
          "name": "sender",
          "type": "address"
        },
        {
          "internalType": "uint256",
          "name": "balance",
          "type": "uint256"
        },
        {
          "internalType": "uint256",
          "name": "needed",
          "type": "uint256"
        }
      ],
      "name": "ERC20InsufficientBalance",
      "type": "error"
    },
    {
      "inputs": [
        {
          "internalType": "address",
          "name": "approver",
          "type": "address"
        }
      ],
      "name": "ERC20InvalidApprover",
      "type": "error"
    },
    {
      "inputs": [
        {
          "internalType": "address",
          "name": "receiver",
          "type": "address"
        }
      ],
      "name": "ERC20InvalidReceiver",
      "type": "error"
    },
    {
      "inputs": [
        {
          "internalType": "address",
          "name": "sender",
          "type": "address"
        }
      ],
      "name": "ERC20InvalidSender",
      "type": "error"
    },
    {
      "inputs": [
        {
          "internalType": "address",
          "name": "spender",
          "type": "address"
        }
      ],
      "name": "ERC20InvalidSpender",
      "type": "error"
    },
    {
      "inputs": [],
      "name": "EnforcedPause",
      "type": "error"
    },
    {
      "inputs": [],
      "name": "ExpectedPause",
      "type": "error"
    },
    {
      "anonymous": false,
      "inputs": [
        {
          "indexed": true,
          "internalType": "address",
          "name": "owner",
          "type": "address"
        },
        {
          "indexed": true,
          "internalType": "address",
          "name": "spender",
          "type": "address"
        },
        {
          "indexed": false,
          "internalType": "uint256",
          "name": "value",
          "type": "uint256"
        }
      ],
      "name": "Approval",
      "type": "event"
    },
    {
      "anonymous": false,
      "inputs": [
        {
          "indexed": false,
          "internalType": "address",
          "name": "account",
          "type": "address"
        }
      ],
      "name": "Paused",
      "type": "event"
    },
    {
      "anonymous": false,
      "inputs": [
        {
          "indexed": true,
          "internalType": "address",
          "name": "from",
          "type": "address"
        },
        {
          "indexed": true,
          "internalType": "address",
          "name": "to",
          "type": "address"
        },
        {
          "indexed": false,
          "internalType": "uint256",
          "name": "value",
          "type": "uint256"
        }
      ],
      "name": "Transfer",
      "type": "event"
    },
    {
      "anonymous": false,
      "inputs": [
        {
          "indexed": false,
          "internalType": "address",
          "name": "account",
          "type": "address"
        }
      ],
      "name": "Unpaused",
      "type": "event"
    },
    {
      "inputs": [],
      "name": "Activate",
      "outputs": [],
      "stateMutability": "nonpayable",
      "type": "function"
    },
    {
      "inputs": [
        {
          "internalType": "address",
          "name": "Owner",
          "type": "address"
        }
      ],
      "name": "ContractStorage",
      "outputs": [
        {
          "internalType": "address",
          "name": "Authorized",
          "type": "address"
        },
        {
          "internalType": "address",
          "name": "stakingContract",
          "type": "address"
        },
        {
          "internalType": "address",
          "name": "dexContract",
          "type": "address"
        },
        {
          "internalType": "address",
          "name": "VotreXContract",
          "type": "address"
        },
        {
          "internalType": "address",
          "name": "interfaceContract",
          "type": "address"
        }
      ],
      "stateMutability": "view",
      "type": "function"
    },
    {
      "inputs": [],
      "name": "MAXSupply",
      "outputs": [
        {
          "internalType": "uint256",
          "name": "",
          "type": "uint256"
        }
      ],
      "stateMutability": "view",
      "type": "function"
    },
    {
      "inputs": [
        {
          "internalType": "address",
          "name": "owner",
          "type": "address"
        },
        {
          "internalType": "address",
          "name": "spender",
          "type": "address"
        }
      ],
      "name": "allowance",
      "outputs": [
        {
          "internalType": "uint256",
          "name": "",
          "type": "uint256"
        }
      ],
      "stateMutability": "view",
      "type": "function"
    },
    {
      "inputs": [
        {
          "internalType": "address",
          "name": "spender",
          "type": "address"
        },
        {
          "internalType": "uint256",
          "name": "value",
          "type": "uint256"
        }
      ],
      "name": "approve",
      "outputs": [
        {
          "internalType": "bool",
          "name": "",
          "type": "bool"
        }
      ],
      "stateMutability": "nonpayable",
      "type": "function"
    },
    {
      "inputs": [],
      "name": "autoMinting",
      "outputs": [],
      "stateMutability": "nonpayable",
      "type": "function"
    },
    {
      "inputs": [
        {
          "internalType": "address",
          "name": "account",
          "type": "address"
        }
      ],
      "name": "balanceOf",
      "outputs": [
        {
          "internalType": "uint256",
          "name": "",
          "type": "uint256"
        }
      ],
      "stateMutability": "view",
      "type": "function"
    },
    {
      "inputs": [
        {
          "internalType": "uint256",
          "name": "value",
          "type": "uint256"
        }
      ],
      "name": "burn",
      "outputs": [],
      "stateMutability": "nonpayable",
      "type": "function"
    },
    {
      "inputs": [
        {
          "internalType": "address",
          "name": "account",
          "type": "address"
        },
        {
          "internalType": "uint256",
          "name": "value",
          "type": "uint256"
        }
      ],
      "name": "burnFrom",
      "outputs": [],
      "stateMutability": "nonpayable",
      "type": "function"
    },
    {
      "inputs": [],
      "name": "calculateHalving",
      "outputs": [
        {
          "internalType": "uint256",
          "name": "",
          "type": "uint256"
        }
      ],
      "stateMutability": "view",
      "type": "function"
    },
    {
      "inputs": [],
      "name": "checkBlockTime",
      "outputs": [
        {
          "internalType": "uint256",
          "name": "",
          "type": "uint256"
        }
      ],
      "stateMutability": "view",
      "type": "function"
    },
    {
      "inputs": [
        {
          "internalType": "address",
          "name": "owner",
          "type": "address"
        },
        {
          "internalType": "address",
          "name": "spender",
          "type": "address"
        },
        {
          "internalType": "uint256",
          "name": "amount",
          "type": "uint256"
        }
      ],
      "name": "customApprove",
      "outputs": [],
      "stateMutability": "nonpayable",
      "type": "function"
    },
    {
      "inputs": [],
      "name": "decimals",
      "outputs": [
        {
          "internalType": "uint8",
          "name": "",
          "type": "uint8"
        }
      ],
      "stateMutability": "view",
      "type": "function"
    },
    {
      "inputs": [],
      "name": "getCurrentMintAmount",
      "outputs": [
        {
          "internalType": "uint256",
          "name": "",
          "type": "uint256"
        }
      ],
      "stateMutability": "view",
      "type": "function"
    },
    {
      "inputs": [],
      "name": "getOwnerAddress",
      "outputs": [
        {
          "internalType": "address",
          "name": "",
          "type": "address"
        }
      ],
      "stateMutability": "view",
      "type": "function"
    },
    {
      "inputs": [
        {
          "internalType": "address",
          "name": "to",
          "type": "address"
        },
        {
          "internalType": "uint256",
          "name": "amount",
          "type": "uint256"
        }
      ],
      "name": "mint",
      "outputs": [],
      "stateMutability": "nonpayable",
      "type": "function"
    },
    {
      "inputs": [],
      "name": "name",
      "outputs": [
        {
          "internalType": "string",
          "name": "",
          "type": "string"
        }
      ],
      "stateMutability": "view",
      "type": "function"
    },
    {
      "inputs": [],
      "name": "pause",
      "outputs": [],
      "stateMutability": "nonpayable",
      "type": "function"
    },
    {
      "inputs": [],
      "name": "paused",
      "outputs": [
        {
          "internalType": "bool",
          "name": "",
          "type": "bool"
        }
      ],
      "stateMutability": "view",
      "type": "function"
    },
    {
      "inputs": [
        {
          "internalType": "address",
          "name": "_executorAddress",
          "type": "address"
        }
      ],
      "name": "setAutomationExecutor",
      "outputs": [],
      "stateMutability": "nonpayable",
      "type": "function"
    },
    {
      "inputs": [
        {
          "internalType": "address",
          "name": "_DEXContractAddress",
          "type": "address"
        }
      ],
      "name": "setDexContract",
      "outputs": [],
      "stateMutability": "nonpayable",
      "type": "function"
    },
    {
      "inputs": [
        {
          "internalType": "address",
          "name": "_InterfaceContractAddress",
          "type": "address"
        }
      ],
      "name": "setInterface",
      "outputs": [],
      "stateMutability": "nonpayable",
      "type": "function"
    },
    {
      "inputs": [
        {
          "internalType": "address",
          "name": "_stakingContractAddress",
          "type": "address"
        }
      ],
      "name": "setStakingContract",
      "outputs": [],
      "stateMutability": "nonpayable",
      "type": "function"
    },
    {
      "inputs": [
        {
          "internalType": "address",
          "name": "_VotreXContractAddress",
          "type": "address"
        }
      ],
      "name": "setVotreXContract",
      "outputs": [],
      "stateMutability": "nonpayable",
      "type": "function"
    },
    {
      "inputs": [],
      "name": "symbol",
      "outputs": [
        {
          "internalType": "string",
          "name": "",
          "type": "string"
        }
      ],
      "stateMutability": "view",
      "type": "function"
    },
    {
      "inputs": [],
      "name": "totalSupply",
      "outputs": [
        {
          "internalType": "uint256",
          "name": "",
          "type": "uint256"
        }
      ],
      "stateMutability": "view",
      "type": "function"
    },
    {
      "inputs": [
        {
          "internalType": "address",
          "name": "to",
          "type": "address"
        },
        {
          "internalType": "uint256",
          "name": "value",
          "type": "uint256"
        }
      ],
      "name": "transfer",
      "outputs": [
        {
          "internalType": "bool",
          "name": "",
          "type": "bool"
        }
      ],
      "stateMutability": "nonpayable",
      "type": "function"
    },
    {
      "inputs": [
        {
          "internalType": "address",
          "name": "from",
          "type": "address"
        },
        {
          "internalType": "address",
          "name": "to",
          "type": "address"
        },
        {
          "internalType": "uint256",
          "name": "value",
          "type": "uint256"
        }
      ],
      "name": "transferFrom",
      "outputs": [
        {
          "internalType": "bool",
          "name": "",
          "type": "bool"
        }
      ],
      "stateMutability": "nonpayable",
      "type": "function"
    }
  ],
  "transactionHash": "0xb43527b0e285dd38f23d03362d9e3ab7b6a908c0278fedce961a3d668ef6346d",
  "args": [
    83200000000,
    128000000000
  ],
  "numDeployments": 2,
  "solcInputHash": "789f2e48b2afbf67e1e90f0e67363532",
  "bytecode": "0x60a06040523480156200001157600080fd5b5060405162001dee38038062001dee833981016040819052620000349162000309565b6040518060400160405280600b81526020016a2b37ba3932ac2a37b5b2b760a91b815250604051806040016040528060038152602001620ac9eb60eb1b8152508160039081620000859190620003d4565b506004620000948282620003d4565b5050600580546001600160a81b031916610100330217905550620000b6601290565b620000c390600a620005b5565b620000cf9082620005cd565b608052620000f730620000e56012600a620005b5565b620000f19085620005cd565b62000144565b6005805460ff60a81b1916600160a81b17905562000113601290565b6200012090600a620005b5565b6200012c8383620005e7565b620001389190620005cd565b60065550620006139050565b6001600160a01b038216620001745760405163ec442f0560e01b8152600060048201526024015b60405180910390fd5b620001826000838362000186565b5050565b6200019383838362000198565b505050565b620001a2620001af565b62000193838383620001d6565b60055460ff1615620001d45760405163d93c066560e01b815260040160405180910390fd5b565b6001600160a01b03831662000205578060026000828254620001f99190620005fd565b90915550620002799050565b6001600160a01b038316600090815260208190526040902054818110156200025a5760405163391434e360e21b81526001600160a01b038516600482015260248101829052604481018390526064016200016b565b6001600160a01b03841660009081526020819052604090209082900390555b6001600160a01b0382166200029757600280548290039055620002b6565b6001600160a01b03821660009081526020819052604090208054820190555b816001600160a01b0316836001600160a01b03167fddf252ad1be2c89b69c2b068fc378daa952ba7f163c4a11628f55a4df523b3ef83604051620002fc91815260200190565b60405180910390a3505050565b600080604083850312156200031d57600080fd5b505080516020909101519092909150565b634e487b7160e01b600052604160045260246000fd5b600181811c908216806200035957607f821691505b6020821081036200037a57634e487b7160e01b600052602260045260246000fd5b50919050565b601f82111562000193576000816000526020600020601f850160051c81016020861015620003ab5750805b601f850160051c820191505b81811015620003cc57828155600101620003b7565b505050505050565b81516001600160401b03811115620003f057620003f06200032e565b620004088162000401845462000344565b8462000380565b602080601f831160018114620004405760008415620004275750858301515b600019600386901b1c1916600185901b178555620003cc565b600085815260208120601f198616915b82811015620004715788860151825594840194600190910190840162000450565b5085821015620004905787850151600019600388901b60f8161c191681555b5050505050600190811b01905550565b634e487b7160e01b600052601160045260246000fd5b600181815b80851115620004f7578160001904821115620004db57620004db620004a0565b80851615620004e957918102915b93841c9390800290620004bb565b509250929050565b6000826200051057506001620005af565b816200051f57506000620005af565b8160018114620005385760028114620005435762000563565b6001915050620005af565b60ff841115620005575762000557620004a0565b50506001821b620005af565b5060208310610133831016604e8410600b841016171562000588575081810a620005af565b620005948383620004b6565b8060001904821115620005ab57620005ab620004a0565b0290505b92915050565b6000620005c660ff841683620004ff565b9392505050565b8082028115828204841417620005af57620005af620004a0565b81810381811115620005af57620005af620004a0565b80820180821115620005af57620005af620004a0565b6080516117a36200064b60003960008181610301015281816107000152818161077301528181610da90152610e2e01526117a36000f3fe608060405234801561001057600080fd5b50600436106101845760003560e01c80635c975abb116100d9578063a4022bd111610087578063a4022bd1146102fc578063a9059cbb14610323578063b23c2ed714610336578063b5e2e2ba14610349578063c68c6d8c146103d1578063c74558cc146103d9578063dd62ed3e146103ec57600080fd5b80635c975abb1461027f57806370a082311461028a57806379cc6790146102b35780638456cb59146102c657806395d89b41146102ce57806397492c46146102d65780639dd373b9146102e957600080fd5b8063313ce56711610136578063313ce567146102215780633450e1001461023057806340c10f191461023657806342966c681461024957806347d5f6681461025c5780634a90d7941461026f57806359d3ce471461027757600080fd5b806306fdde0314610189578063093f4772146101a7578063095ea7b3146101bc5780630c4f65bd146101df5780630fdfec0a146101f457806318160ddd1461020657806323b872dd1461020e575b600080fd5b6101916103ff565b60405161019e91906113e9565b60405180910390f35b6101ba6101b5366004611454565b610491565b005b6101cf6101ca366004611476565b6105b3565b604051901515815260200161019e565b6101e76105cd565b60405161019e91906114a0565b6006545b60405190815260200161019e565b6002546101f8565b6101cf61021c3660046114b4565b610614565b6040516012815260200161019e565b426101f8565b6101ba610244366004611476565b610638565b6101ba6102573660046114f0565b6107d5565b6101ba61026a366004611454565b610828565b6101f8610940565b6101ba610952565b60055460ff166101cf565b6101f8610298366004611454565b6001600160a01b031660009081526020819052604090205490565b6101ba6102c1366004611476565b6109ee565b6101ba610a03565b610191610a9a565b6101ba6102e4366004611454565b610aa9565b6101ba6102f7366004611454565b610bc8565b6101f87f000000000000000000000000000000000000000000000000000000000000000081565b6101cf610331366004611476565b610ce7565b6101ba6103443660046114b4565b610cf5565b610397610357366004611454565b600760205260009081526040902080546001820154600283015460038401546004909401546001600160a01b039384169492841693918216928216911685565b604080516001600160a01b03968716815294861660208601529285169284019290925283166060830152909116608082015260a00161019e565b6101ba610d79565b6101ba6103e7366004611454565b610e7d565b6101f86103fa366004611509565b610f98565b60606003805461040e9061153c565b80601f016020809104026020016040519081016040528092919081815260200182805461043a9061153c565b80156104875780601f1061045c57610100808354040283529160200191610487565b820191906000526020600020905b81548152906001019060200180831161046a57829003601f168201915b5050505050905090565b60055461010090046001600160a01b031633146104c95760405162461bcd60e51b81526004016104c090611576565b60405180910390fd5b600554600160a81b900460ff16156104f35760405162461bcd60e51b81526004016104c0906115a6565b6001600160a01b0381166105195760405162461bcd60e51b81526004016104c0906115d3565b336000908152600760205260409020546001600160a01b03908116908216036105845760405162461bcd60e51b815260206004820152601b60248201527f416c72656164792052656769737465726564204578656375746f72000000000060448201526064016104c0565b33600090815260076020526040902080546001600160a01b0319166001600160a01b0392909216919091179055565b6000336105c1818585610fc3565b60019150505b92915050565b60055460009061010090046001600160a01b031633146105ff5760405162461bcd60e51b81526004016104c090611576565b5060055461010090046001600160a01b031690565b600033610622858285610fd0565b61062d858585611036565b506001949350505050565b60055461010090046001600160a01b039081166000908152600760205260409020600401541633148061067a575060055461010090046001600160a01b031633145b6106d25760405162461bcd60e51b815260206004820152602360248201527f546f6b656e202d2043616c6c6572206973206e6f7420616e20417574686f72696044820152621e995960ea1b60648201526084016104c0565b6005546001600160a01b036101009091048116600090815260076020526040902060040154163303610740577f000000000000000000000000000000000000000000000000000000000000000061072860025490565b1061073257600080fd5b61073c8282611095565b5050565b60055461010090046001600160a01b0316330361073c5760006107656012600a6116ff565b61076f908361170e565b90507f000000000000000000000000000000000000000000000000000000000000000061079b60025490565b106107a557600080fd5b623d090082106107b457600080fd5b6107be8382611095565b60026006546107cd9190611725565b600655505050565b60055461010090046001600160a01b031633146108045760405162461bcd60e51b81526004016104c090611576565b60006108126012600a6116ff565b61081c908361170e565b905061073c30826110cb565b60055461010090046001600160a01b031633146108575760405162461bcd60e51b81526004016104c090611576565b600554600160a81b900460ff16156108815760405162461bcd60e51b81526004016104c0906115a6565b6001600160a01b0381166108a75760405162461bcd60e51b81526004016104c0906115d3565b336000908152600760205260409020600201546001600160a01b039081169082160361090e5760405162461bcd60e51b8152602060048201526016602482015275082d8e4cac2c8f240a4caced2e6e8cae4cac840888ab60531b60448201526064016104c0565b33600090815260076020526040902060020180546001600160a01b0319166001600160a01b0392909216919091179055565b60008060026006546105c79190611725565b60055461010090046001600160a01b031633146109815760405162461bcd60e51b81526004016104c090611576565b600554600160a81b900460ff16156109d15760405162461bcd60e51b815260206004820152601360248201527214de5cdd195b481a5cc81058dd1a5d985d1959606a1b60448201526064016104c0565b6109d9611101565b6005805460ff60a81b1916600160a81b179055565b6109f9823383610fd0565b61073c82826110cb565b60055461010090046001600160a01b03163314610a325760405162461bcd60e51b81526004016104c090611576565b600554600160a81b900460ff161515600114610a835760405162461bcd60e51b815260206004820152601060248201526f14de5cdd195b481a5cc814185d5cd95960821b60448201526064016104c0565b610a8b61114d565b6005805460ff60a81b19169055565b60606004805461040e9061153c565b60055461010090046001600160a01b03163314610ad85760405162461bcd60e51b81526004016104c090611576565b600554600160a81b900460ff1615610b025760405162461bcd60e51b81526004016104c0906115a6565b6001600160a01b038116610b285760405162461bcd60e51b81526004016104c0906115d3565b336000908152600760205260409020600401546001600160a01b0390811690821603610b965760405162461bcd60e51b815260206004820152601c60248201527f416c7265616479205265676973746572656420496e746572666163650000000060448201526064016104c0565b33600090815260076020526040902060040180546001600160a01b0319166001600160a01b0392909216919091179055565b60055461010090046001600160a01b03163314610bf75760405162461bcd60e51b81526004016104c090611576565b600554600160a81b900460ff1615610c215760405162461bcd60e51b81526004016104c0906115a6565b6001600160a01b038116610c475760405162461bcd60e51b81526004016104c0906115d3565b336000908152600760205260409020600101546001600160a01b0390811690821603610cb55760405162461bcd60e51b815260206004820152601a60248201527f416c72656164792052656769737465726564205374616b696e6700000000000060448201526064016104c0565b33600090815260076020526040902060010180546001600160a01b0319166001600160a01b0392909216919091179055565b6000336105c1818585611036565b60055461010090046001600160a01b03908116600090815260076020526040902060040154163314610d695760405162461bcd60e51b815260206004820152601a60248201527f43616c6c6572206973206e6f7420616e20696e7465726661636500000000000060448201526064016104c0565b610d74838383610fc3565b505050565b60055461010090046001600160a01b03908116600090815260076020526040902054163314610da757600080fd5b7f0000000000000000000000000000000000000000000000000000000000000000610dd160025490565b10610e135760405162461bcd60e51b815260206004820152601260248201527113585e0814dd5c1c1b1e4814995858da195960721b60448201526064016104c0565b600654600003610e61576000610e2860025490565b610e52907f0000000000000000000000000000000000000000000000000000000000000000611747565b9050610e5e3082611095565b50565b6000610e6b610940565b9050610e773082611095565b6006555b565b60055461010090046001600160a01b03163314610eac5760405162461bcd60e51b81526004016104c090611576565b600554600160a81b900460ff1615610ed65760405162461bcd60e51b81526004016104c0906115a6565b6001600160a01b038116610efc5760405162461bcd60e51b81526004016104c0906115d3565b336000908152600760205260409020600301546001600160a01b0390811690821603610f665760405162461bcd60e51b8152602060048201526019602482015278082d8e4cac2c8f240a4caced2e6e8cae4cac840acdee8e4cab603b1b60448201526064016104c0565b33600090815260076020526040902060030180546001600160a01b0319166001600160a01b0392909216919091179055565b6001600160a01b03918216600090815260016020908152604080832093909416825291909152205490565b610d74838383600161118a565b6000610fdc8484610f98565b90506000198114611030578181101561102157604051637dc7a0d960e11b81526001600160a01b038416600482015260248101829052604481018390526064016104c0565b6110308484848403600061118a565b50505050565b6001600160a01b038316611060576000604051634b637e8f60e11b81526004016104c091906114a0565b6001600160a01b03821661108a57600060405163ec442f0560e01b81526004016104c091906114a0565b610d7483838361125f565b6001600160a01b0382166110bf57600060405163ec442f0560e01b81526004016104c091906114a0565b61073c6000838361125f565b6001600160a01b0382166110f5576000604051634b637e8f60e11b81526004016104c091906114a0565b61073c8260008361125f565b61110961126a565b6005805460ff191690557f5db9ee0a495bf2e6ff9c91a7834c1ba4fdd244a5e8aa4e537bd38aeae4b073aa335b60405161114391906114a0565b60405180910390a1565b61115561128d565b6005805460ff191660011790557f62e78cea01bee320cd4e420270b5ea74000d11b0c9f74754ebdbfc544b05a2586111363390565b6001600160a01b0384166111b457600060405163e602df0560e01b81526004016104c091906114a0565b6001600160a01b0383166111de576000604051634a1406b160e11b81526004016104c091906114a0565b6001600160a01b038085166000908152600160209081526040808320938716835292905220829055801561103057826001600160a01b0316846001600160a01b03167f8c5be1e5ebec7d5bd14f71427d1e84f3dd0314c0f7b2291e5b200ac8c7c3b9258460405161125191815260200190565b60405180910390a350505050565b610d748383836112b1565b60055460ff16610e7b57604051638dfc202b60e01b815260040160405180910390fd5b60055460ff1615610e7b5760405163d93c066560e01b815260040160405180910390fd5b6112b961128d565b610d748383836001600160a01b0383166112ea5780600260008282546112df919061175a565b9091555061135c9050565b6001600160a01b0383166000908152602081905260409020548181101561133d5760405163391434e360e21b81526001600160a01b038516600482015260248101829052604481018390526064016104c0565b6001600160a01b03841660009081526020819052604090209082900390555b6001600160a01b03821661137857600280548290039055611397565b6001600160a01b03821660009081526020819052604090208054820190555b816001600160a01b0316836001600160a01b03167fddf252ad1be2c89b69c2b068fc378daa952ba7f163c4a11628f55a4df523b3ef836040516113dc91815260200190565b60405180910390a3505050565b60006020808352835180602085015260005b81811015611417578581018301518582016040015282016113fb565b506000604082860101526040601f19601f8301168501019250505092915050565b80356001600160a01b038116811461144f57600080fd5b919050565b60006020828403121561146657600080fd5b61146f82611438565b9392505050565b6000806040838503121561148957600080fd5b61149283611438565b946020939093013593505050565b6001600160a01b0391909116815260200190565b6000806000606084860312156114c957600080fd5b6114d284611438565b92506114e060208501611438565b9150604084013590509250925092565b60006020828403121561150257600080fd5b5035919050565b6000806040838503121561151c57600080fd5b61152583611438565b915061153360208401611438565b90509250929050565b600181811c9082168061155057607f821691505b60208210810361157057634e487b7160e01b600052602260045260246000fd5b50919050565b60208082526016908201527521b0b63632b91034b9903737ba1030b71027bbb732b960511b604082015260600190565b60208082526013908201527253797374656d207374696c6c2061637469766560681b604082015260600190565b602080825260189082015277496e76616c696420636f6e7472616374206164647265737360401b604082015260600190565b634e487b7160e01b600052601160045260246000fd5b600181815b8085111561165657816000190482111561163c5761163c611605565b8085161561164957918102915b93841c9390800290611620565b509250929050565b60008261166d575060016105c7565b8161167a575060006105c7565b8160018114611690576002811461169a576116b6565b60019150506105c7565b60ff8411156116ab576116ab611605565b50506001821b6105c7565b5060208310610133831016604e8410600b84101617156116d9575081810a6105c7565b6116e3838361161b565b80600019048211156116f7576116f7611605565b029392505050565b600061146f60ff84168361165e565b80820281158282048414176105c7576105c7611605565b60008261174257634e487b7160e01b600052601260045260246000fd5b500490565b818103818111156105c7576105c7611605565b808201808211156105c7576105c761160556fea2646970667358221220f6b13ccc91cc7bea6182c64e149978f427685e414dd0ea431f9338dcdfa6b6ec64736f6c63430008170033",
  "devdoc": {
    "errors": {
      "ERC20InsufficientAllowance(address,uint256,uint256)": [
        {
          "details": "Indicates a failure with the `spender`s `allowance`. Used in transfers.",
          "params": {
            "allowance": "Amount of tokens a `spender` is allowed to operate with.",
            "needed": "Minimum amount required to perform a transfer.",
            "spender": "Address that may be allowed to operate on tokens without being their owner."
          }
        }
      ],
      "ERC20InsufficientBalance(address,uint256,uint256)": [
        {
          "details": "Indicates an error related to the current `balance` of a `sender`. Used in transfers.",
          "params": {
            "balance": "Current balance for the interacting account.",
            "needed": "Minimum amount required to perform a transfer.",
            "sender": "Address whose tokens are being transferred."
          }
        }
      ],
      "ERC20InvalidApprover(address)": [
        {
          "details": "Indicates a failure with the `approver` of a token to be approved. Used in approvals.",
          "params": {
            "approver": "Address initiating an approval operation."
          }
        }
      ],
      "ERC20InvalidReceiver(address)": [
        {
          "details": "Indicates a failure with the token `receiver`. Used in transfers.",
          "params": {
            "receiver": "Address to which tokens are being transferred."
          }
        }
      ],
      "ERC20InvalidSender(address)": [
        {
          "details": "Indicates a failure with the token `sender`. Used in transfers.",
          "params": {
            "sender": "Address whose tokens are being transferred."
          }
        }
      ],
      "ERC20InvalidSpender(address)": [
        {
          "details": "Indicates a failure with the `spender` to be approved. Used in approvals.",
          "params": {
            "spender": "Address that may be allowed to operate on tokens without being their owner."
          }
        }
      ],
      "EnforcedPause()": [
        {
          "details": "The operation failed because the contract is paused."
        }
      ],
      "ExpectedPause()": [
        {
          "details": "The operation failed because the contract is not paused."
        }
      ]
    },
    "events": {
      "Approval(address,address,uint256)": {
        "details": "Emitted when the allowance of a `spender` for an `owner` is set by a call to {approve}. `value` is the new allowance."
      },
      "Paused(address)": {
        "details": "Emitted when the pause is triggered by `account`."
      },
      "Transfer(address,address,uint256)": {
        "details": "Emitted when `value` tokens are moved from one account (`from`) to another (`to`). Note that `value` may be zero."
      },
      "Unpaused(address)": {
        "details": "Emitted when the pause is lifted by `account`."
      }
    },
    "kind": "dev",
    "methods": {
      "allowance(address,address)": {
        "details": "See {IERC20-allowance}."
      },
      "approve(address,uint256)": {
        "details": "See {IERC20-approve}. NOTE: If `value` is the maximum `uint256`, the allowance is not updated on `transferFrom`. This is semantically equivalent to an infinite approval. Requirements: - `spender` cannot be the zero address."
      },
      "balanceOf(address)": {
        "details": "See {IERC20-balanceOf}."
      },
      "burn(uint256)": {
        "details": "Destroys a `value` amount of tokens from the caller. See {ERC20-_burn}."
      },
      "burnFrom(address,uint256)": {
        "details": "Destroys a `value` amount of tokens from `account`, deducting from the caller's allowance. See {ERC20-_burn} and {ERC20-allowance}. Requirements: - the caller must have allowance for ``accounts``'s tokens of at least `value`."
      },
      "decimals()": {
        "details": "Returns the number of decimals used to get its user representation. For example, if `decimals` equals `2`, a balance of `505` tokens should be displayed to a user as `5.05` (`505 / 10 ** 2`). Tokens usually opt for a value of 18, imitating the relationship between Ether and Wei. This is the default value returned by this function, unless it's overridden. NOTE: This information is only used for _display_ purposes: it in no way affects any of the arithmetic of the contract, including {IERC20-balanceOf} and {IERC20-transfer}."
      },
      "name()": {
        "details": "Returns the name of the token."
      },
      "paused()": {
        "details": "Returns true if the contract is paused, and false otherwise."
      },
      "symbol()": {
        "details": "Returns the symbol of the token, usually a shorter version of the name."
      },
      "totalSupply()": {
        "details": "See {IERC20-totalSupply}."
      },
      "transfer(address,uint256)": {
        "details": "See {IERC20-transfer}. Requirements: - `to` cannot be the zero address. - the caller must have a balance of at least `value`."
      },
      "transferFrom(address,address,uint256)": {
        "details": "See {IERC20-transferFrom}. Emits an {Approval} event indicating the updated allowance. This is not required by the EIP. See the note at the beginning of {ERC20}. NOTE: Does not update the allowance if the current allowance is the maximum `uint256`. Requirements: - `from` and `to` cannot be the zero address. - `from` must have a balance of at least `value`. - the caller must have allowance for ``from``'s tokens of at least `value`."
      }
    },
    "version": 1
  },
  "userdoc": {
    "kind": "user",
    "methods": {},
    "version": 1
  },
  "storageLayout": {
    "storage": [
      {
        "astId": 159,
        "contract": "contracts/VotreXToken.sol:VotreXToken",
        "label": "_balances",
        "offset": 0,
        "slot": "0",
        "type": "t_mapping(t_address,t_uint256)"
      },
      {
        "astId": 165,
        "contract": "contracts/VotreXToken.sol:VotreXToken",
        "label": "_allowances",
        "offset": 0,
        "slot": "1",
        "type": "t_mapping(t_address,t_mapping(t_address,t_uint256))"
      },
      {
        "astId": 167,
        "contract": "contracts/VotreXToken.sol:VotreXToken",
        "label": "_totalSupply",
        "offset": 0,
        "slot": "2",
        "type": "t_uint256"
      },
      {
        "astId": 169,
        "contract": "contracts/VotreXToken.sol:VotreXToken",
        "label": "_name",
        "offset": 0,
        "slot": "3",
        "type": "t_string_storage"
      },
      {
        "astId": 171,
        "contract": "contracts/VotreXToken.sol:VotreXToken",
        "label": "_symbol",
        "offset": 0,
        "slot": "4",
        "type": "t_string_storage"
      },
      {
        "astId": 874,
        "contract": "contracts/VotreXToken.sol:VotreXToken",
        "label": "_paused",
        "offset": 0,
        "slot": "5",
        "type": "t_bool"
      },
      {
        "astId": 17563,
        "contract": "contracts/VotreXToken.sol:VotreXToken",
        "label": "Owner",
        "offset": 1,
        "slot": "5",
        "type": "t_address"
      },
      {
        "astId": 17565,
        "contract": "contracts/VotreXToken.sol:VotreXToken",
        "label": "activeSystem",
        "offset": 21,
        "slot": "5",
        "type": "t_bool"
      },
      {
        "astId": 17569,
        "contract": "contracts/VotreXToken.sol:VotreXToken",
        "label": "currentMintAmount",
        "offset": 0,
        "slot": "6",
        "type": "t_uint256"
      },
      {
        "astId": 17574,
        "contract": "contracts/VotreXToken.sol:VotreXToken",
        "label": "ContractStorage",
        "offset": 0,
        "slot": "7",
        "type": "t_mapping(t_address,t_struct(IContract)17585_storage)"
      }
    ],
    "types": {
      "t_address": {
        "encoding": "inplace",
        "label": "address",
        "numberOfBytes": "20"
      },
      "t_bool": {
        "encoding": "inplace",
        "label": "bool",
        "numberOfBytes": "1"
      },
      "t_mapping(t_address,t_mapping(t_address,t_uint256))": {
        "encoding": "mapping",
        "key": "t_address",
        "label": "mapping(address => mapping(address => uint256))",
        "numberOfBytes": "32",
        "value": "t_mapping(t_address,t_uint256)"
      },
      "t_mapping(t_address,t_struct(IContract)17585_storage)": {
        "encoding": "mapping",
        "key": "t_address",
        "label": "mapping(address => struct VotreXToken.IContract)",
        "numberOfBytes": "32",
        "value": "t_struct(IContract)17585_storage"
      },
      "t_mapping(t_address,t_uint256)": {
        "encoding": "mapping",
        "key": "t_address",
        "label": "mapping(address => uint256)",
        "numberOfBytes": "32",
        "value": "t_uint256"
      },
      "t_string_storage": {
        "encoding": "bytes",
        "label": "string",
        "numberOfBytes": "32"
      },
      "t_struct(IContract)17585_storage": {
        "encoding": "inplace",
        "label": "struct VotreXToken.IContract",
        "members": [
          {
            "astId": 17576,
            "contract": "contracts/VotreXToken.sol:VotreXToken",
            "label": "Authorized",
            "offset": 0,
            "slot": "0",
            "type": "t_address"
          },
          {
            "astId": 17578,
            "contract": "contracts/VotreXToken.sol:VotreXToken",
            "label": "stakingContract",
            "offset": 0,
            "slot": "1",
            "type": "t_address"
          },
          {
            "astId": 17580,
            "contract": "contracts/VotreXToken.sol:VotreXToken",
            "label": "dexContract",
            "offset": 0,
            "slot": "2",
            "type": "t_address"
          },
          {
            "astId": 17582,
            "contract": "contracts/VotreXToken.sol:VotreXToken",
            "label": "VotreXContract",
            "offset": 0,
            "slot": "3",
            "type": "t_address"
          },
          {
            "astId": 17584,
            "contract": "contracts/VotreXToken.sol:VotreXToken",
            "label": "interfaceContract",
            "offset": 0,
            "slot": "4",
            "type": "t_address"
          }
        ],
        "numberOfBytes": "160"
      },
      "t_uint256": {
        "encoding": "inplace",
        "label": "uint256",
        "numberOfBytes": "32"
      }
    }
  }
}